:100000000C94A2020C94E9020C94E9020C94E9020B
:100010000C94E9020C94E9020C94E9020C94E902B4
:100020000C94E9020C94E9020C9451260C942327B9
:100030000C947D210C94E9020C94E9020C94E902E1
:100040000C94E9020C947A1C0C94E9020C94E902D9
:100050000C949E1C0C94D6210C94E9020C94E90299
:100060000C94E9020C94E9020C94E9020C94E90264
:100070000C94E9020C94E9020C94E9020C94E90254
:100080000C94E9020C94E9020C94E9020C94E90244
:100090000C94E9020C94E9020C94E9020C94E90234
:1000A0000C94E9020C94E9020C94E9028606860697
:1000B000B206B2061A074508450845083807D107B1
:1000C000E207E207E508E508F708F708EE08F70891
:1000D000F708F708E508E508F308F708F708F30854
:1000E0009027B727AF28B727AF2803282628AF289F
:1000F0007D288C2830300029002B0001512A005324
:10010000005400550056005F006000610057005C1D
:10011000005D005E00000059005A005B005800625C
:1001200000A65D63000000C35C010001000100C483
:100130005CCE5CC05C0100C75CC65CBC5C0100C9F5
:100140005CC85CBD5C0000CB5CCA5CC15C010001AA
:10015000000100005C000000000000000000002A18
:100160002B2800000000000000000000000000003C
:10017000000029000000002C1E34202122243426F7
:1001800027252E362D3738271E1F202122232425F0
:10019000263333362E37381F0405060708090A0BA5
:1001A0000C0D0E0F101112131415161718191A1B17
:1001B0001C1D2F3130232D350405060708090A0BB5
:1001C0000C0D0E0F101112131415161718191A1BF7
:1001D0001C1D2F3130354C000000000000000000D5
:1001E000000000000000000000000000000000000F
:1001F00000000000000000000000007E0F00D4FF9F
:10020000FFFFC70000007800047F3F1F64321464C2
:100210003214783C1E1E140A052223252628292A7A
:100220002C2D2F3032333536383A3B3D3E40424359
:100230004547494A4C4E5051535557595A5C5E6098
:1002400062646668696B6D6F71737577797B7D7FAA
:1002500081838587898A8C8E90929496989A9C9EA9
:100260009FA1A3A5A7A8AAACAEAFB1B3B4B6B8B9C5
:10027000BBBCBEBFC1C2C3C5C6C7C9CACBCCCDCE2D
:10028000D0D1D2D2D3D4D5D6D7D7D8D9D9DADADB10
:10029000DBDBDCDCDCDCDCDDDDDDDDDCDCDCDCDC9C
:1002A000DBDBDBDADAD9D9D8D7D7D6D5D4D3D2D2DB
:1002B000D1D0CECDCCCBCAC9C7C6C5C3C2C1BFBEC3
:1002C000BCBBB9B8B6B4B3B1AFAEACAAA8A7A5A32E
:1002D000A19F9E9C9A98969492908E8C8A898785ED
:1002E00083817F7D7B79777573716F6D6B696866CC
:1002F0006462605E5C5A5957555351504E4C4A499E
:1003000047454342403E3D3B3A3836353332302F45
:100310002D2C2A292826252322FFAA7F55400001BB
:1003200001010101010101010202020202020202B5
:100330000203030303030303030404040404040487
:10034000050505050506060606060707070707084B
:10035000080808090909090A0A0A0B0B0B0C0C0CFE
:100360000D0D0D0E0E0E0F0F0F1010111111121298
:1003700013131414151516161717181819191A1A15
:100380001B1B1C1D1D1E1E1F202021222223242476
:10039000252626272829292A2B2C2D2D2E2F3031B2
:1003A0003232333435363738393A3B3C3D3E3F40C4
:1003B0004142434445464748494A4C4D4E4F5051AF
:1003C0005354555658595A5B5D5E5F616264656669
:1003D00068696B6C6D6F7072737577787A7B7D7EF0
:1003E0008082838587888A8C8E8F91939596989A40
:1003F0009C9EA0A2A3A5A7A9ABADAFB1B3B5B7BA58
:10040000BCBEC0C2C4C6C9CBCDCFD1D4D6D8DBDD2B
:10041000DFE2E4E7E9EBEEF0F3F5F8FAFDFF0E03B7
:1004200043006F0073007000610064000000160359
:100430004B005000720065007000750062006C0097
:100440006900630000000403090409023B00020183
:1004500000A0FA09040000010301010009211101B3
:1004600000012240000705810308000A0904010079
:100470000103000000092111010001226D000705A0
:10048000820320000A12010002000000085C4BE514
:10049000B101000102000105010980A101850319D4
:1004A000012AB700150126B700950175108100C01B
:1004B000050C0901A101850419012AA002150126D4
:1004C000A002950175108100C005010906A10185F2
:1004D00006050719E029E715002501950875018132
:1004E000020507190029EF1500250195F075018116
:1004F00002050819012905950575019102950175F7
:10050000039101C005010906A101050719E029E7CA
:100510001500250195087501810295017508810175
:100520000507190029FF150026FF009506750881AB
:1005300000050819012905950575019102950175B8
:10054000039101C011241FBECFEFDAE0DEBFCDBFA3
:1005500004B603FE27C08091B0029091B102A09131
:10056000B202B091B3028730904BA740B04BD1F4A8
:100570001092B0021092B1021092B2021092B30225
:1005800014BE84B7877F84BF0FB6F894A895809176
:100590006000886180936000109260000FBEE0E010
:1005A000F8E3099511E0A0E0B1E0E0EBF3E502C06B
:1005B00005900D92A63BB107D9F722E0A6EBB1E07A
:1005C00001C01D92A03BB207E1F70E941E140C94DB
:1005D000D6290C940000863A9D4541F4FB018281A6
:1005E000882321F084EF90E00E94AB0481E008951D
:1005F00081E008950C94EB0208950C94FC021F9383
:10060000CF93DF9300D000D01F92CDB7DEB74983E0
:100610005A836B833091B80189819A81311114C05A
:10062000662359F0222349F00E94870A182F682F69
:1006300089819A810E94320A03C00E945C0A182FA5
:1006400069817A81812F04C00E94870A69817A8139
:100650000F900F900F900F900F90DF91CF911F91FF
:100660000C949D11FC01262F408151816281738180
:1006700084810C94FF0281E00895CF93DF93EC0115
:1006800060E00E943203BE01DF91CF910C94FD0225
:100690000E94A7120E94C0040E949F1D0C94E112A8
:1006A0000C94DD1280E00E94D31C80E00E94C30401
:1006B0000C94071908950C945A030E94D3080E94C1
:1006C0005B032FEF84E39CE0215080409040E1F7F2
:1006D00000C000000C94FC210F931F93CF93DF9375
:1006E0008C0161E00E943203EC01B8010E94FA0221
:1006F000882309F44BC0B801CE010E94431C882313
:1007000009F444C0B801CE010E94B01F8823F1F162
:10071000B801CE010E94DA1D8823C1F1B801CE01D3
:100720000E940C1F882391F1B801CE010E948A1A01
:10073000882361F1F8018281882309F1CB358DE5A9
:10074000D807C1F050F4C115FCE5DF0781F0CF3DBB
:10075000DC45A9F40E94B10F19C0CC35EDE5DE07E8
:1007600061F0CD35DD4559F40E94F40E08C00E94B9
:100770005D030CC00E94FD0E02C00E94000FC80164
:10078000DF91CF911F910F910C94F80280E0DF91DF
:10079000CF911F910F9108950C945A030E94671BEB
:1007A0000E940C200E94C3040E94D3190C94CC0315
:1007B000DF92EF92FF920F931F93CF93DF93E82F77
:1007C000F0E0E95AFE4FD490282F269526952695DD
:1007D00030E0F901E950FE4F0491877010E0082ED7
:1007E00002C0159507950A94E2F701701127F901E7
:1007F000E951FE4FE490F12C082E02C0F594E794E5
:100800000A94E2F791E0E922FF24F901E952FE4F50
:10081000C491D0E002C0D595C7958A95E2F7C17022
:10082000DD270115110519F081EE0E941C05E11468
:10083000F10419F086EE0E941C058D2D0E943406ED
:10084000EF2819F086EE0E94BE05012B19F081EE0B
:100850000E94BE05CD2B51F08CE2DF91CF911F910C
:100860000F91FF90EF90DF900C943406DF91CF91C1
:100870001F910F91FF90EF90DF900895EF92FF92FC
:100880000F931F93CF93DF938C01F62E8AE0E82E0F
:10089000F8018491882309F457C0813009F042C0DF
:1008A000E8012196FE018491813031F42196FE0108
:1008B00084910E94340639C0823039F4E8012296CE
:1008C000FE0184910E941C0530C0833039F4E80198
:1008D0002296FE0184910E94BE0527C0843029F52E
:1008E000E8012296FE01249180E090E030E0205360
:1008F00031092A30310560F4E89EA001E99E500DCF
:100900001124C901840F951F2196FE012491EECF79
:10091000009759F0EFE9FFE03197F1F700C00000D0
:100920000197F6CF0E94D803E8018E010F5F1F4F99
:100930008F2D882309F4ACCFEFE9FFE03197F1F771
:1009400000C000008150F5CFDF91CF911F910F9132
:10095000FF90EF90089560E00C943E0408950C948D
:10096000AE0481E00895CF93C82F0E94B10488237C
:1009700029F0C0FD02C02A9A01C02A98CF9108959B
:10098000229A2A9A0895CF93C82F0E94AF048C2FE1
:100990000E94B304CF910895CF93DF93CDB7DEB714
:1009A0002B970FB6F894DEBF0FBECDBF4F8358878D
:1009B00069877A878B8761110E944D0E9E012F5F98
:1009C0003F4F86E0F90111928A95E9F785E0FE0133
:1009D0003796D90101900D928A95E1F789819A8124
:1009E0004C815D81452B31F09F3F31F491E08F3F89
:1009F00019F403C091E001C090E090FF09C0498163
:100A00005A816B817C818D819E810E946E0D05C013
:100A1000C9010E943B038111F2CF2B960FB6F894C7
:100A2000DEBF0FBECDBFDF91CF910895FC01808165
:100A300091810E94C90A0895CF93882309F49CC02C
:100A4000C82F8238C1F40E940C2081FD95C069E353
:100A500080910201909103010E94F4200E94720E85
:100A60002FEF81EE94E0215080409040E1F700C0EC
:100A7000000069E319C0833801F50E940C2080FD55
:100A80007BC063E580910201909103010E94F420F4
:100A90000E94720E2FEF81EE94E021508040904032
:100AA000E1F700C0000063E580910201909103012D
:100AB0000E94FF20CF910C94720E8438C1F40E94E2
:100AC0000C2082FD59C067E48091020190910301DE
:100AD0000E94F4200E94720E2FEF81EE94E02150CC
:100AE00080409040E1F700C0000067E4DDCF8CEF6C
:100AF0008C0F813AD0F46C2F809102019091030108
:100B00000E947420882349F06C2F809102019091FB
:100B100003010E94FF200E94720E6C2F809102013F
:100B2000909103010E94F420C5CF80E28C0F8830A1
:100B300048F4C77081E001C0880FCA95EAF70E94A7
:100B4000300EB8CFEBE5EC0FE33040F4F0E0EE5AB6
:100B5000FE4F808190E0CF910C943220C85AC7316B
:100B600058F4EC2FF0E0EE0FFF1FEC5DFE4F80819C
:100B70009181CF910C944820CF910895882309F456
:100B80005BC0682F823879F40E940C2081FF54C02A
:100B900069E380910201909103010E94F4200E9478
:100BA000720E69E310C08338B1F40E940C2080FFFC
:100BB00043C063E580910201909103010E94F420FB
:100BC0000E94720E63E580910201909103010E94E0
:100BD000FF200C94720E843879F40E940C2082FF5E
:100BE0002BC067E480910201909103010E94F420E0
:100BF0000E94720E67E4E7CF8CEF860F813A18F3FC
:100C000080E2860F883048F4677081E001C0880F69
:100C10006A95EAF70E94360EDCCF8BE5860F8330AB
:100C200020F480E090E00C943220685A673120F480
:100C300080E090E00C94482008951F93CF93DF93B9
:100C4000182FEB010E941C05209741F08FE99FE0CF
:100C50000197F1F700C000002197F6CF812FDF91B7
:100C6000CF911F910C94BE05893319F060E070E0BC
:100C700002C060E570E00C941D06882321F00E94FC
:100C8000300E0C94720E0895882321F00E94360EC7
:100C90000C94720E0895CF92DF92EF92FF920F9311
:100CA0001F93CF93DF937C01D62FC72FFC011281B6
:100CB000058102950F700E94260E8823B9F011233A
:100CC000A9F08C2F807F803421F080E28D0F883056
:100CD00068F08091800282FD09C082E00E94C20E0D
:100CE0000E94260E91E0D82ED92601C0D12CCC2E00
:100CF000C2948FE0C8228C2D90E08C30910508F0D2
:100D0000C4C1FC01EA5AFF4F0C943D298C2F807F0F
:100D1000CF70882311F0C295C07F112399F0CC23A6
:100D200009F49FC180E28D0F883010F0D11104C00A
:100D30008C2F0E94300E03C08C2F0E94400E0E9408
:100D4000720E8FC18D2F0E94BE05CC2309F49DC168
:100D500080E28D0F883038F1DD2329F18C2F0E943D
:100D6000460E24C08C2F807FCF70803211F0C29548
:100D7000C07FDD2319F0D130A1F13DC08091800208
:100D800082FF17C0112349F0CC2329F08C2F0E9439
:100D9000300E0E94720E80E065C180E00E94BE05A8
:100DA000CC2309F472C18C2F0E94360E0E94720E61
:100DB0006CC1112371F0002341F0013031F40E9425
:100DC000530E8C2B0E945B0E60C10E94530E8C2B25
:100DD0001DC0002319F0013009F457C10E94680EAC
:100DE00025C0112321F0063008F04FC10EC0053098
:100DF00008F04BC11BC0112361F0002331F0F70153
:100E0000858180FF2EC18F7085838C2F0E943D06C7
:100E10003CC1002359F0D93309F034C1FFEF07EE8C
:100E200013E0F15000401040E1F72AC18C2F0E94DE
:100E300044062BC18C2F86958695837019F08130DE
:100E400061F023C1112321F08D2F9C2F937002C0DC
:100E500080E090E00E94322020C1112321F08D2FEC
:100E60009C2F937002C080E090E00E94482015C142
:100E70008C2F837009F047C011110BC12D2F2295C3
:100E800026952770220F220F6D2F6F70862F90E00E
:100E9000A0E0B0E0022E04C0880F991FAA1FBB1F5C
:100EA0000A94D2F7D4FF10C04FE050E060E070E049
:100EB00004C0440F551F661F771F2A95D2F740952F
:100EC00050956095709503C040E050E0BA01C6951A
:100ED000C695C3708A019B01082B192B2A2B3B2B2B
:100EE000C901B801C23049F058F4C13019F00E946C
:100EF0004809CFC00E943609CCC00E945A09C9C017
:100F00000E943409C6C0112319F08C2F817001C0D2
:100F10008695882309F4BDC02D2F2295269527702C
:100F2000220F220F6D2F6F70862F90E0A0E0B0E0AF
:100F3000022E04C0880F991FAA1FBB1F0A94D2F764
:100F4000D4FF10C04FE050E060E070E004C0440FF8
:100F5000551F661F771F2A95D2F7409550956095CB
:100F6000709503C040E050E0BA01C695C695C370C5
:100F70008A019B01082B192B2A2B3B2BC901B80195
:100F8000C23049F058F4C13019F00E940D0A81C0F6
:100F90000E94FB097EC00E941F0A7BC00E946E094E
:100FA00078C0CF70112339F08C2F0E9494098D2FB7
:100FB0000E943D066EC08D2F0E9444068C2F0E9419
:100FC000B50967C0D23F21F128F4D03F41F0D13FAD
:100FD000C1F043C0D33F19F1D43F79F03EC0112393
:100FE00041F0053008F051C08C2F8F710E94DA0952
:100FF0004CC0063008F049C0F7CF8091800282FFD4
:1010000018C0112339F08C2F8F710E9494093DC0B4
:101010001123C9F38C2F8F710E94B50936C011239B
:1010200029F08C2F8F710E947F092FC00E947A09AE
:101030002CC0112349F0CF718C2F0E94940963E0DA
:101040008C2F0E94A70E21C081E00E94C20E0230A8
:10105000E0F082E00E94C20E18C0112331F000239C
:1010600091F28D2F0E941C0510C0002399F2D933F4
:1010700049F41FEF27EE33E0115020403040E1F7F4
:1010800000C000008D2F0E94BE0588EF8C0D8430BB
:1010900020F40E940C200E94C304DD20C9F00E94AD
:1010A000220E80FD15C0F70112820E941C0E0E94C4
:1010B0009409C7010E9489080E941C0EDF91CF91FC
:1010C0001F910F91FF90EF90DF90CF900C94B50996
:1010D000DF91CF911F910F91FF90EF90DF90CF9014
:1010E00008950F931F93CF93DF93EC01688179816B
:1010F0008A810E94D40A8C010E94310A0E9422092E
:10110000B801CE010E944B06DF91CF911F910F9144
:101110000895CF93DF93EC01988189812B813C81E5
:10112000232B31F08F3F31F481E09F3F19F403C04E
:1011300081E001C080E080FD1DC0CE010E946C03F3
:10114000811110C00E94260E8823A1F08A81882375
:1011500089F08091800282FD0DC082E0DF91CF9105
:101160000C94C20ECE010E947108CE01DF91CF9186
:101170000C943D03DF91CF91089580E090E00E94B0
:10118000322080E090E00E9448200E944D0E0E9494
:10119000500E0C94720E80910201909103010E94F6
:1011A0000A210C94BD080E943D0E0C94CB08E92F37
:1011B000E295EF704E2F50E0FA013297EE30F105D4
:1011C000B0F4EE59FF4F0C943D29803F91F018F494
:1011D000883E68F40EC0843F51F40BC0883E48F04E
:1011E000813F29F406C093FB882780F9089580E0A9
:1011F000089581E00895FC01808191810E94C90ACF
:101200000E94D7080895CF93DF9300D000D01F929B
:10121000CDB7DEB70F900F900F900F900F90DF912A
:10122000CF910895CF93DF9300D000D000D0CDB7F9
:10123000DEB726960FB6F894DEBF0FBECDBFDF91A6
:10124000CF910895089508950C9423090C942409CE
:101250000E9426096093CC017093CD018093CE014A
:101260009093CF010C94BD080C9428090F931F9301
:101270000091CC011091CD012091CE013091CF0190
:10128000602B712B822B932B1F910F910C942809AB
:101290000F931F930091CC011091CD012091CE01AD
:1012A0003091CF0160237123822393231F910F91EB
:1012B0000C9428090F931F930091CC011091CD013C
:1012C0002091CE013091CF0160277127822793278B
:1012D0001F910F910C9428090C9423090E946C090A
:1012E0006093C8017093C9018093CA019093CB01A8
:1012F0000C94BD0860E070E0CB010C946E090F9374
:101300001F9341E050E060E070E08A019B0104C05F
:10131000000F111F221F331F8A95D2F7C901B80190
:101320001F910F910C946E090F931F9341E050E0B1
:1013300060E070E004C0440F551F661F771F8A9558
:10134000D2F78091C8019091C901A091CA01B091D2
:10135000CB018A019B01082B192B2A2B3B2BC9019E
:10136000B8011F910F910C946E090F931F9341E0E8
:1013700050E060E070E004C0440F551F661F771F07
:101380008A95D2F740955095609570958091C801E7
:101390009091C901A091CA01B091CB018A019B0132
:1013A000082319232A233B23C901B8011F910F9158
:1013B0000C946E090F931F9341E050E060E070E0E1
:1013C00004C0440F551F661F771F8A95D2F780917E
:1013D000C8019091C901A091CA01B091CB018A01C5
:1013E0009B01082719272A273B27C901B8011F910C
:1013F0000F910C946E090F931F930091C8011091E7
:10140000C9012091CA013091CB01602B712B822B35
:10141000932B1F910F910C946E090F931F930091C2
:10142000C8011091C9012091CA013091CB016023FC
:101430007123822393231F910F910C946E090F93B4
:101440001F930091C8011091C9012091CA013091E8
:10145000CB0160277127822793271F910F910C944E
:101460006E090895990F990F890FE82FE695E69573
:10147000E695877051E001C0550F8A95EAF785E03F
:10148000E89FF0011124E754FE4F20E030E070E0C7
:101490004081CB01022E02C0969587950A94E2F70F
:1014A0008170819584278523842781932F5F3F4F07
:1014B0002530310569F70895990F990F890F682F25
:1014C000669566956695982F977085E0689FB00140
:1014D000112440E050E080E0FB01E40FF51FE754E9
:1014E000FE4F208130E0092E02C0369527950A94E0
:1014F000E2F721703327042E01C0220F0A94EAF785
:10150000822B4F5F5F4F4530510531F70895BF92F1
:10151000CF92DF92EF92FF920F931F93CF93DF93BF
:101520008C01C090C801D090C901E090CA01F09030
:10153000CB018091CC019091CD01A091CE01B091D1
:10154000CF01C82AD92AEA2AFB2ACFE1D0E0D70165
:10155000C6010C2E04C0B695A795979587950A9459
:10156000D2F780FD04C0219790F7B12C07C0BC2EA4
:10157000B8018C2F0E94B1110197A9F38B2DDF9137
:10158000CF911F910F91FF90EF90DF90CF90BF9080
:101590000895CF93DF93EC010E94870ABE010E9459
:1015A000B111DF91CF9108951F93CF93DF93EB019A
:1015B0009091B801992321F0CB010E94C90A13C070
:1015C000882349F0CB010E94870A182F682FCE018B
:1015D0000E94320A04C0CB010E945C0A182FBE018F
:1015E000812F0E94B111DF91CF911F9108951F9318
:1015F000CF93DF93C091D00116E08091D101C8173D
:1016000099F0D0E01C9FF0011D9FF00D1124EE52C7
:10161000FE4F4081518162817381848195810E9456
:1016200012092196C770E9CFDF91CF911F910895DC
:1016300040910202509103026091040270910502F0
:1016400080910602909107020C941209EF92FF928A
:101650000F931F93CF93DF938091070282958F7032
:1016600009F065C080910402882309F460C080916C
:10167000D001F090D101109102020091030260911B
:1016800005027091060291E01F3F09F090E0C091C1
:101690000001D0910101292F96E0E92E8F1509F460
:1016A00046C06115710521F00F3F21F030E003C005
:1016B00031E001C0322F90E030FD36C0E89EF001ED
:1016C000E99EF00D1124DF01AE52BE4F11963C9100
:1016D0001197301329C03C91311326C012963C91CA
:1016E0001297311121C013964D915C911497461BAE
:1016F000570B4C175D07C0F4809107028F70806113
:1017000080930702E952FE4F80818F708061808351
:1017100082E092E00E948908DF91CF911F910F91A2
:10172000FF90EF900C94F70A01968770B7CFDF9186
:10173000CF911F910F91FF90EF9008959F92AF92DC
:10174000BF92CF92DF92EF92FF920F931F93CF93AE
:10175000DF93CDB7DEB761970FB6F894DEBF0FBE4B
:10176000CDBF8C0185E0F801DE011D9601900D9240
:101770008A95E1F7D8011296EC9090910202E091DF
:10178000030220910502309106022115310531F046
:10179000EF3F31F481E09F3F19F403C081E001C0C5
:1017A00080E0B82FB1709B2E80FD47C1D8014C91CD
:1017B00011965C9111971396AD90BC90149782E0AE
:1017C000C82E82E0D82EF0900402B501621B730B84
:1017D0002091000130910101FF2009F4D9C08091CE
:1017E00007026217730708F095C0282F207F09F0C1
:1017F00052C05E1313C0491311C0FE2CE1100EC07D
:101800008F708061809307020E94180BC6010E94AE
:10181000890880910702F80185834DC1AB2831F01A
:101820005F3F31F481E04F3F19F403C081E001C014
:1018300080E080FD03C081E08E2502C080E090E062
:10184000F82FF170FF2E80FF1CC08091D0012091F5
:10185000D10136E0821709F40BC190E0389FF00106
:10186000399FF00D1124EE52FE4F6181561306C0D0
:101870006081461303C06281E61203C0019687703F
:10188000E9CFFE2CEE2009F416C180910702816099
:101890008093070254C05E1306C0491304C0E110D0
:1018A00002C0F80199C0C8010E94FB08882361F1B9
:1018B000EE2051F120910702822F82958F7090E0E7
:1018C000029774F0809102029091030298878F83AF
:1018D0001986BB86AA862C87CE0107960E948908A6
:1018E00086E0F801A2E0B2E001900D928A95E1F75E
:1018F0000E94260B0E94180B0AC05E1711F1C80146
:101900000E94FB0881112CC0C8010E948908FF2495
:10191000F394D1C0282F207F81F77A2DB98AA88A25
:101920006E2D89890E94030982E092E00E94890855
:1019300086E0D6011D928A95E9F70E94180BF12CDA
:10194000BAC04913DCCFE110DACFF8018583C801B2
:101950000E94890886E0D6011D928A95E9F7ABC0FE
:10196000EE2091F220910702822F82958F7090E0F5
:1019700002970CF4B5CF80910202909103029A83F2
:1019800089831B82BD82AC822E83CE010196A6CFB5
:101990006217730708F044C0FE2CEE2009F4B4CFA0
:1019A0005E1330C049132EC02091070220FD21C0D4
:1019B000822F82958F70482F50E041155105C9F054
:1019C000F80125834F30510541F08F5F982F929594
:1019D000907F822F8F70892B8583C8010E94890890
:1019E00086E0F801A2E0B2E001900D928A95E1F75D
:1019F0003CC086E0F801A2E0B2E001900D928A9529
:101A0000E1F759C0C8010E94FB08811169CF80919C
:101A10000702816080930702C8010E9489084BC0B9
:101A20007A2DB98AA88A6E2D89890E94030986E0D9
:101A3000D6011D928A95E9F718C0EE2009F464CF0B
:101A4000C8010E94FB08F82E882309F45DCF86E0C8
:101A5000F801A2E0B2E001900D928A95E1F782E0F0
:101A600092E00E9416050E94260B0E94180B23C0CC
:101A70004D875E878D859E850E94C90A292F2295F4
:101A80002F70223028F49F7039F0811105C00BC0EF
:101A9000243028F49F7049F4805E883020F0C8011B
:101AA0000E9489089F2CF92C06C0D80115969C919C
:101AB000907F91F7F8CF8F2D61960FB6F894DEBF27
:101AC0000FBECDBFDF91CF911F910F91FF90EF908F
:101AD000DF90CF90BF90AF909F9008951F93CF93CA
:101AE000DF93CDB7DEB72C970FB6F894DEBF0FBEED
:101AF000CDBF4F83588769877A878B879C87CE01B4
:101B000007960E949E0B8823D1F09F8188852A85A5
:101B10003B85232B31F08F3F31F481E09F3F19F457
:101B200003C081E001C080E080FD47C04F8158853F
:101B300069857A858B859C850E9412093EC086E066
:101B4000FE013796DE01119601900D928A95E1F71C
:101B5000FF81E8856A857B856115710531F0EF3F6E
:101B600031F481E0FF3F19F403C081E001C080E05F
:101B700080FD23C02091D10130E0C901019687701A
:101B800099274091D00150E084179507F1F1F9832E
:101B9000EA837D836C8396E0929FD001939FB00D82
:101BA0001124AE52BE4FFE01319601900D929A95CE
:101BB000E1F78093D1010E94F70A16E08091D001ED
:101BC0009091D101891771F1189FC00111248E5293
:101BD0009E4F0E949E0B882329F1E091D0011E9F09
:101BE000F0011124EE52FE4F4081518162817381D8
:101BF000848195810E9412098091D00190E0019624
:101C0000877099278093D001D9CF0E94D308109272
:101C1000D1011092D001E2E0F2E086E0DF011D92F6
:101C20008A95E9F72C960FB6F894DEBF0FBECDBFAC
:101C3000DF91CF911F910895809108028595859538
:101C40008595089580910802877008959091080203
:101C5000977081E009F480E0089580912C02089546
:101C600090912C02892B80932C020895809590915D
:101C70002C02892380932C02089510922C0208953F
:101C800090912B02892B80932B020895809590913F
:101C90002B02892380932B02089510922B02089522
:101CA00010922A02089580910902089508950C94D3
:101CB000560E0C94570E9091800292FD08C09091A0
:101CC0000902981721F0809309020C94590E089587
:101CD00080910902882329F01092090280E00C9477
:101CE000590E0895E0910201F091030180912C02B8
:101CF0008083E0910201F0910301908180912B0299
:101D0000892B8083E0910201F09103019081809101
:101D10002A02892B808380910902882381F0E09137
:101D20000201F09103019081892B8083809102014F
:101D3000909103010E945E2081110E94680E8091A3
:101D40000201909103010C9418200C94560E90916E
:101D5000800292FD10C098E0899F90011124262BEB
:101D6000209308020E949409809108028595859528
:101D700085950C94A50E0C9494091092080280E0AD
:101D80000C94A50E2091080280958223809308026E
:101D9000982F977099F430E0482F082E000C550BBF
:101DA0002417350759F09091800292FD07C0859560
:101DB000859585950E94B5090C94BD0E0895909166
:101DC000800292FB222720F9281769F080FB92F904
:101DD0009093800280917F02909180020E942D0F4B
:101DE00082E00C94C20E08958091800282FB8827C5
:101DF00080F991E089270C94DF0E81E00C94DF0ECE
:101E000080E00C94DF0E6FEF7FEF80E090E00C94A9
:101E1000C02980E090E00E949C2921E0893E9E4FED
:101E200009F020E0822F089582E090E00C948E2942
:101E300083E090E00C948E29CF9384E090E00E94A0
:101E40008E29C82F82E290E00E948E292C2F30E04C
:101E5000A901582BCA01CF910895CF93C92F682F9C
:101E600084E090E00E94A2296C2F82E290E0CF9162
:101E70000C94A229AB01BC018FE090E00C94B42932
:101E8000AB01BC0183E190E00C94B42960E070E008
:101E9000CB010C94400F60E070E0CB010E943A0F40
:101EA0000C94460F69EE7EEF80E090E00E94C0291E
:101EB00060E082E090E00E94A22960E083E090E090
:101EC0000E94A2291092CC011092CD011092CE0155
:101ED0001092CF0160E084E090E00E94A22960E0CF
:101EE00082E290E00E94A22960E085E090E00E94FA
:101EF000A22960E086E090E00E94A2296FEF87E0CF
:101F000090E00E94A22940E050E0BA0188E090E011
:101F10000E94B42960E08DE090E00E94A22940E098
:101F200050E0BA0188E190E00E94B42960E087E1C6
:101F300090E00E94A22940E050E0BA018CE190E0DC
:101F40000E94B42960E070E080E290E00E94C02925
:101F500040E050E0BA0188E190E00E94B4290C947E
:101F60004B0F0C94520F682F8EE090E00C94A22936
:101F70000E94BB21609338027093390280933A0229
:101F800090933B0260933402709335028093360243
:101F900090933702089585B7806885BF85B78068BC
:101FA00085BF089581E008950C94D20F08950C9494
:101FB000D60F0C94D60F0C94D90F0C94D60F0C940A
:101FC000DD0F0C94D60F0E94CB0F8DE892E10E949A
:101FD00002200E94E10F0C94DF0F0E94D70F0C9497
:101FE000D60F0E94A6210E947E130E94671B0E94AA
:101FF00098190C94DB0F9F92AF92BF92CF92DF9211
:10200000EF92FF920F931F93CF93DF93CDB7DEB77D
:102010002A970FB6F894DEBF0FBECDBF0E94931370
:1020200081110E94B80F8EE2A82E82E0B82E00E047
:1020300010E0902E802F0E94CB12D82EF501C19077
:102040005F01C826B1F40F5F1F4F0630110589F7F5
:102050008FEF89838A831B820E94AF218160782F52
:102060009D838C8349815A816B818D810E94CC0430
:102070002FC080913C0281FD0E94D112E12CFF24EF
:10208000F3948C2D8F21F1F00E94D40F882399F0C6
:10209000EE829F82DF2081E009F480E088870E9441
:1020A000AF218160782F9A8789874E815F8168850B
:1020B0008A850E94CC04F801E25DFD4F8081F826FC
:1020C000F08206C0E394FF0CF4E0EF12DACFBBCF4E
:1020D0000E94DC190E949E1D0E940C2090912D02EE
:1020E0008917B9F00E940C2080932D022A960FB612
:1020F000F894DEBF0FBECDBFDF91CF911F910F913E
:10210000FF90EF90DF90CF90BF90AF909F900C9496
:10211000C3042A960FB6F894DEBF0FBECDBFDF9181
:10212000CF911F910F91FF90EF90DF90CF90BF90D4
:10213000AF909F900895CF93DF930E94B611EC016A
:10214000811522E59207E8F5811531E5930708F03E
:10215000B6C0883E910528F5803E910508F0E9C09B
:10216000883A910570F4853A910508F07AC081307B
:10217000910509F473C008F4D9C0049708F0D9C0D8
:10218000D5C08F3B910508F0D1C0C85AD0E0CC0F24
:10219000DD1FCB5ADE4F0990D881C02DCE0194644B
:1021A000C9C0811540E5940708F069C0811550E465
:1021B000950708F060C09A9581159F4108F4B9C051
:1021C000B5C0811536E5930728F5811545E59407D7
:1021D00008F092C0811554E5950708F087C0AC015E
:1021E00043705527282F26952695C115D34508F00D
:1021F0006CC081E090E002C0880F991F4A95E2F719
:1022000040E2249F90011124EC01C22BD32BCE017C
:102210009C6890C081152AE5920780F4811539E504
:10222000930708F072C0811548E5940708F47EC052
:10223000D82FCC27CE01806F906A7CC09056811534
:10224000904208F073C08D2F8F710E944A12DD27D3
:10225000D0628F71AE01582BCA016CC081E090E052
:1022600069C0C55AD0E0CD57DE4F8881C82FD0E075
:10227000CE0190645FC0DF70CE01906A5BC074E0F5
:10228000969587957A95E1F7282F23703C2F337028
:1022900081E090E002C0880F991F3A95E2F79C68B0
:1022A000AC01522B9A019C2F9F709695969550E207
:1022B000959FE0011124C9018C2B9D2B3BC0D82F89
:1022C000CC27CE01816F906A35C081E090E002C0DA
:1022D000880F991F4A95E2F750E2259F900111243B
:1022E000EC01C22BD32BCE019A6824C0D82FCC2767
:1022F000CE01846F906A1EC00E944A128F7190E0D6
:10230000D82FCC27CE01906215C08F700E944A1240
:1023100094E0D695C7959A95E1F7CF70D0E0DC2F81
:10232000CC27D0699E01282BC90104C080E090E031
:1023300001C0CE01DF91CF910895E72FF0E096E044
:10234000899FE00DF11D1124EE0FFF1FEE0FFF1FFF
:10235000E60FF11DEE0FFF1FE950FF4F859194919D
:1023600008950E949D110E949B1008958238910546
:1023700069F1B0F48133910509F46DC048F48932F4
:10238000910509F463C08A32910509F469C0089582
:102390008533910509F455C089339105B9F0089545
:1023A000833E910569F138F4803E9105B1F0823E9B
:1023B000910509F10895863E9105A9F1873E9105A1
:1023C000B9F1843E910509F064C023C020917F02D9
:1023D00020FD4FC021FD4DC0089580917F0280FDFA
:1023E00044C08091800280FF44C080917F0284FDC0
:1023F00042C083EE4DC080917F0282FF38C0F5CF8E
:1024000080917F0282FD33C08091800280FD31C0C7
:10241000ECCF8091800281FF32C080917F0284FDE9
:102420002AC087EE35C080917F0283FF26C0F5CF9A
:1024300080917F0283FD21C08091800281FD1FC0B9
:10244000ECCF80917F0285FD1CC01DC080917F0272
:1024500085FD19C016C080917F0286FD16C017C089
:1024600080917F0286FD13C010C089E311C082EE07
:102470000FC080EE0DC080E00BC086EE09C084EE78
:1024800007C089E205C085E303C08AE201C081E399
:1024900090E0089590917F0292FF0DC0282F28713F
:1024A000283019F4877F846006C0282F24712430D7
:1024B00011F48B7F886093FF0DC0282F287128317D
:1024C00019F4877E846106C0282F2471243111F409
:1024D0008B7E88612091800220FF0DC0382F3871DB
:1024E000383019F4877F816006C0382F3171313060
:1024F00011F48E7F886021FF0DC0282F28712831AC
:1025000019F4877E816106C0282F2171213111F4D1
:102510008E7E886194FD877E089580E008950C94F6
:10252000030F0E9493138FE39CE90197F1F700C01A
:1025300000000E94931380E00E94CB1280FF04C031
:102540000E948F120C94FC2108950C9491120E9409
:10255000090F811102C00E94B10F0E94140F8093D5
:102560003C020E941C0F9093800280937F020E9485
:10257000A5120E94180F682F70E080E090E00E9482
:1025800034096091C8017091C9018091CA0190918C
:10259000CB010C946C09E82FF0E0E957FD4F8081E6
:1025A0000895089580EA8A95F1F7089500C0089586
:1025B0000C94D21208950C94DA120C94DB120C9441
:1025C000DA120C94DF12F894E82FE295EF70F0E045
:1025D00031A1282F2F7081E090E001C0880F2A954B
:1025E000EAF7982F9095932391A392A1892B82A328
:1025F000789408950F931F93CF93DF93CAE8D1E0A7
:1026000089918F3F11F00E94E31281E0C039D80711
:10261000B9F7C6E8D1E00AE811E089918F3F11F0DF
:102620000E94E3120C171D07C1F7DF91CF911F9194
:102630000F910895CF92DF92EF92FF920F931F9325
:10264000CF93DF938C01C62FD0E0CE0186579E4FEB
:102650007C01FC0190819F3F09F447C0D62EF8947D
:10266000E92FE295EF70F0E081A19F7021E030E06A
:1026700001C0220F9A95EAF7822B81A382A12095AF
:10268000282322A378940E94D612E6E8F1E04AE8D3
:1026900051E031E0C12C21912F3F89F0A22FA2956A
:1026A000AF70B0E090968C9190E02F7002C095953D
:1026B00087952A95E2F780FD02C0832F01C080E054
:1026C000C82A330F4E175F0731F7F70180818F3F1C
:1026D00011F00E94E31261E0C11001C060E08D2D95
:1026E0000E94D812C00FD11FC882DF91CF911F91D5
:1026F0000F91FF90EF90DF90CF9008950E94FA1213
:1027000086E0E7E8F2E0DF01982F1D929A95E9F75D
:10271000E1E8F2E0DF011D928A95E9F786E00E9488
:10272000DB130C944803FF920F931F93CF93DF9317
:1027300000D000D000D0CDB7DEB78E010F5F1F4FA5
:1027400086E0F80111928A95E9F7F12C6F2DC80106
:102750000E941A13F394F6E0FF12F8CF46E050E01F
:10276000B80181E892E00E948129FF24F394009748
:1027700009F4F12C892B41F086E0F801A1E8B2E0E0
:1027800001900D928A95E1F72F2D46E067E872E0FF
:1027900081E892E00E94DC130E9450038F2D269660
:1027A0000FB6F894DEBF0FBECDBFDF91CF911F9162
:1027B0000F91FF9008950895FF920F931F93CF9369
:1027C000DF938C01F62ED72FC42F222349F081E00E
:1027D00080933F020E94AF2190933E0280933D027E
:1027E00080913F028823C1F080913D0290913E028A
:1027F0000E94C721059780F0EF2DFD2FD8014C2FA7
:1028000050E0CD01801B910B841795071CF48D912E
:102810008193F7CF10923F02DF91CF911F910F91DB
:10282000FF9008950E94A9230E94F10F0C94B523F4
:102830000E94B9230E94FB0F0C94D3230E943621DF
:102840000E9490230E94E30F0E9412140E94181409
:102850000E94ED0FFBCFEF92FF920F931F93CF9348
:10286000DF938B01682F11110AC0442329F0E82F50
:10287000F0E0E25EFC4F6491762F862F75C0212F29
:1028800030E0E82FF0E0442321F0E25EFC4FE491D9
:10289000F0E046E0049FC0011124CFEFD0E0BE017C
:1028A0000E94F3284BEA4603C001479F900D112474
:1028B000800F911D800F911D982F990F890FAE01E8
:1028C000421B530B4E9FD0014F9FB00D5E9FB00D2A
:1028D00011249B2F189FA0011124452F55278E01ED
:1028E000041B150B0E9FA0010F9F500D1E9F500D36
:1028F00011247E01E81AF108E29E8001E39E100D8A
:10290000F29E100D1124212F3327C21BD30BCE9F13
:102910009001CF9F300DDE9F300D11246230710584
:10292000A9F048F46115710569F061307105C9F4C9
:102930008B2F752F0DC06430710581F058F0663013
:10294000710579F47E2F8B2F932F0DC0832F7B2F52
:102950009E2F09C08E2F7B2F952F05C08E2F732F92
:1029600002C07E2F852F692FDF91CF911F910F918C
:10297000FF90EF90089541E00E942B140895089570
:102980000E94BB140895CF93DF93762FE901682F3F
:10299000842F0E94C014798368838A83DF91CF914A
:1029A000089580918D02282F269530E0211531055C
:1029B00019F48170826005C02532310524F08170E0
:1029C000886480938D02089588E090E00C949629A5
:1029D000CF92DF92EF92FF926B017C010E94D114A3
:1029E000B701A60188E090E0FF90EF90DF90CF90D4
:1029F0000C94B429EDE8F2E083E0808311828FEF3C
:102A000082838383148260817181828193810C949B
:102A1000E81480918D0280FF02C08695089580E0C1
:102A2000089590919102933018F49F5F90939102D2
:102A3000882351F060918D0270918E0280918F02F7
:102A4000909190020C94E814089581E00C94111573
:102A500090919102992319F09150909391028823BB
:102A600051F060918D0270918E0280918F02909151
:102A700090020C94E814089581E00C94281570E0FD
:102A80000C94AF1D6091080180918D0280FF0AC0F7
:102A90008091070123E0829FC00111248E569D4F33
:102AA0000C943F158091090190910A01891780F7D4
:102AB000E82FF0E09F01220F331FE20FF31FEE56C5
:102AC000FD4F1182108212828F5FF0CF90918D02A4
:102AD00090FF16C09091090120910A01921770F49D
:102AE000E92FF0E0DF01AA0FBB1FEA0FFB1FEE5634
:102AF000FD4F8183608342839F5FF0CF0C9442152A
:102B00000895CF93DF9300D01F92CDB7DEB7909199
:102B10008D0290FF0AC09E012F5F3F4F0E94C31499
:102B20004B8169818A810E9466150F900F900F90EA
:102B3000DF91CF910895CF93DF93EC01EC81F0E02A
:102B4000E75EFD4F4491EDE8F2E0628181810E94F1
:102B500081158C818F5F8C83DF91CF910895CF9306
:102B6000DF93EC01EDE8F2E0438162818C810E9409
:102B700081158C818F5F8C83DF91CF9108950F93A6
:102B80001F93CF93DF9300D01F92CDB7DEB78C0198
:102B90008091400281110AC09E012F5F3F4F4FEF8D
:102BA0006FEF0E94C3148A8180934002F8018481F0
:102BB000813051F028F0823061F4409140020AC027
:102BC0008091400240E007C06091400240E080E018
:102BD00003C040E080E060E00E946615F801848157
:102BE00090E0019663E070E00E94072984830F90D3
:102BF0000F900F90DF91CF911F910F910895AF9299
:102C0000BF92CF92DF92EF92FF920F931F93CF93D9
:102C1000DF9300D01F92CDB7DEB7182FF62E042F0A
:102C2000E22E90918D0290FF6DC0E92FE695AE2FB8
:102C3000B0E0A057BE4F8C9180934C029E7F9230A3
:102C400061F49E012F5F3F4F812F0E94C3144B817F
:102C500069818A810E94661543C0823019F400910F
:102C600090023EC0863019F410918E0239C089302E
:102C7000D9F38931A9F5E9518E2F8170D82EE695C7
:102C8000F0E0E75EFC4FA590B490C12CBB246091AE
:102C90000B01C61618F52C2D30E0A29EC001A39E94
:102CA000900DB29E900D112470E00E94F328812FA8
:102CB000D11002C0860F01C0861B90910901290F17
:102CC000311DA901440F551F240F351F2E563D4FAE
:102CD000402F6F2D0E94C314C394D9CF0E94421578
:102CE00010938E02F0928F0200939002EE2051F02A
:102CF00060918D0270918E0280918F02909190026E
:102D00000E94E8140F900F900F90DF91CF911F91C8
:102D10000F91FF90EF90DF90CF90BF90AF9008950C
:102D2000EDE8F2E09181282F4381628188E0890FEC
:102D30000C94FF1581E00C949016EDE8F2E091817F
:102D4000282F4381628188EF890F0C94FF1581E061
:102D50000C949D16EDE8F2E0628121E1620F08F427
:102D60006FEF282F438181810C94FF1581E00C9433
:102D7000AA16EDE8F2E0628121E1621B08F460E04E
:102D8000282F438181810C94FF1581E00C94B916A2
:102D9000EDE8F2E0438121E1420F08F44FEF282FE4
:102DA000628181810C94FF1581E00C94C816EDE8D6
:102DB000F2E0438121E1421B08F440E0282F6281C8
:102DC00081810C94FF1581E00C94D71620E00C94BF
:102DD000FF15FF920F931F93CF93DF93EC01F12C1C
:102DE0000FEF10E060910B01F616F0F480910901ED
:102DF0002F2D30E0280F311DC901880F991F280F92
:102E0000391F2E563D4F70E0C8010E940729962FAA
:102E10008C814091900260918F02F99E800D112467
:102E20000E94C314F394DECF0E9442159A818C81D4
:102E300090FF02C08F5F01C081508C83DF91CF91E2
:102E40001F910F91FF900895BF92CF92DF92EF9262
:102E5000FF920F931F93CF93DF93FC01828180FF3A
:102E600002C00FEF01C001E010E080910B011817C4
:102E700008F040C080910901C12ED12CE601C80F95
:102E8000D11DCE01880F991FC80FD91FCE56DD4F17
:102E9000198218821A8234E0E32EF12CB12C809131
:102EA00042028B0D853014F0837005C087FF03C08C
:102EB00090910B01890F082E000C990BC816D906AA
:102EC00091F4809190028E9DA0018F9D500D112450
:102ED00055954795559547959E0160918F02809134
:102EE0008E020E94C314B00EF1E0EF1AF108B9F699
:102EF0001F5FBBCF0E94421580914202013031F426
:102F0000811102C080910B01815007C090E00196B1
:102F100060910B0170E00E94072980934202DF91CB
:102F2000CF911F910F91FF90EF90DF90CF90BF90C6
:102F30000895CF938091090190910A01891770F447
:102F4000E82FF0E09F01220F331FE20FF31FEE5630
:102F5000FD4F1182108212828F5FF0CFC0E060912E
:102F60000B01C617C0F5EC2FF0E070E0CF010E9416
:102F7000072920910901820F20914102022E000CA5
:102F8000330B90E0E217F307CCF020910601022EFC
:102F9000000C330B2E173F078CF09C01220F331FC0
:102FA000820F931F9C012E563D4F409190026091DD
:102FB0008F0280918E020E94C3140BC0FC01EE0FA1
:102FC000FF1F8E0F9F1FFC01EE56FD4F11821082D6
:102FD0001282CF5FC4CF0E944215209105018091DB
:102FE0004102820F8093410290910601920F9093CB
:102FF000060119165CF4082E000C990B40910B0188
:1030000050E041505109841795071CF021952093F9
:103010000501CF9108958F929F92AF92BF92CF9268
:10302000DF92EF92FF920F931F93CF93DF938C0168
:10303000FC014481C42FD0E09E01DE010E944B2997
:103040009B01AC010E9461296B017C01E0E2F0E090
:10305000EC1BFD0BA5E5B0E09B01AC010E946129D2
:103060004B015C019F01DF010E9443299B01AC01E0
:103070000E946C299B01AC012C0D3D1D4E1D5F1D56
:10308000C501B4010E941B29C22FD22F2A3228F475
:10309000F3E02F9F900111240DC025E530E02C1B9B
:1030A0003109C901880F991F280F391F37FF02C046
:1030B0002F5F3F4F35952795C22FC095F12C85E5A1
:1030C000E82EED1A80910B01F816C8F4F1FC02C04D
:1030D0008E2D01C08D2F909109012F2D30E0290FE9
:1030E000311DA901440F551F240F351F2E563D4F8A
:1030F0004C2F60918F020E94C314F394E3CF0E947F
:103100004215F8018481811102C091E003C0803230
:1031100019F49FEF9093040190910401890FF80135
:103120008483DF91CF911F910F91FF90EF90DF90FB
:10313000CF90BF90AF909F908F9008950F931F9363
:10314000CF93DF93EC0100E010E080910B01282F7A
:1031500030E00217130724F5909109019801290F17
:10316000311DA901440F551F240F351F2E563D4F09
:10317000869590E04C81081719071CF4442331F020
:1031800002C0411103C04091900201C040E0609133
:103190008F0280918E020E94C3140F5F1F4FD5CF04
:1031A0000E9442158C8190E00196817099278C8352
:1031B000DF91CF911F910F910895EDE8F2E08081AA
:1031C0008E7F808360817181828193810E94E81467
:1031D00010924D022FEF80E792E021508040904006
:1031E000E1F700C000000C944215EDE8F2E08081A8
:1031F0008E7F808310924D022FEF80E792E0215066
:1032000080409040E1F700C000000C9442151092FD
:103210004D0280914A0281110AC081E080934A02E6
:1032200080918D028170809349020C94F518089565
:1032300060918D02669570E04BE050E08CE091E08B
:103240000E947429892B19F481E080934D020E9419
:10325000AF219093440280934302089590918D0290
:1032600090FF35C09170811102C0926006C0853216
:1032700010F0986402C0880F982B90938D026623FB
:1032800051F060918D0270918E0280918F02909129
:1032900090020E94E81460918D02669570E04BE008
:1032A00050E08CE091E00E947429892B19F0109273
:1032B0004D0202C00E94181981E08093460240919D
:1032C000900260918F0280918E020C94E616089510
:1032D000682F90918D02969581E0890F853208F0D4
:1032E00081E00C942E1981E00C946819682F90915C
:1032F0008D0296958FEF890F09F484E20C942E19B4
:1033000081E00C94761961E00C942E19EDE8F2E05E
:1033100080818160808386950C94831980918D02D1
:1033200080FD0C94DD180C94861960E00C942E1925
:1033300080914B0281112EC00E94090F811104C09F
:103340000E94B10F0E94FA140E94E41460938D024F
:1033500070938E0280938F02909390026E7F61F43F
:103360000E94FA140E94E41460938D0270938E02FE
:1033700080938F02909390020E94D11410924D027C
:1033800080918D0280FF03C086950E94951981E08F
:1033900080934B020895EDE8F2E0808181608083A4
:1033A00086950C94951910924A02809149028111D8
:1033B0000E94CB190C9418190F931F93CF93DF938E
:1033C00080914D02882309F485C080914C02E091E0
:1033D0008D02E695E81BE0934502823049F4F0E067
:1033E000EB5EFD4FE491CE2FD0E00BE915E149C033
:1033F000863049F4F0E0EE5EFD4FE491CE2FD0E050
:103400000FEA15E13EC0893051F4E695F0E0E15F46
:10341000FD4FE491CE2FD0E009EE16E132C08F309F
:1034200051F4E695F0E0E45FFD4FE491CE2FD0E05B
:1034300004E217E126C0853149F4F0E0E75FFD4F73
:10344000E491CE2FD0E009E917E11BC0883181F06B
:10345000833239F4E7E0F2E0C591D4910FEB15E146
:1034600010C0843251F4C4EFD1E00EE918E109C074
:10347000C8E2D0E00BE018E104C0C0EDD7E00FEBEC
:1034800014E180914602882361F0109246020E9466
:10349000AF2190934402809343021092480210920D
:1034A00047020E94AF21E0914302F09144028E1B3B
:1034B0009F0B8F3F9F4770F4EC0FFD1FF09344026A
:1034C000E093430283E492E0F801DF91CF911F91F2
:1034D0000F910994DF91CF911F910F910895882347
:1034E00011F0FA0101C0FB010994CF93DF93C82FBB
:1034F000D62F0E9409158C1740F00E9409158D17D0
:1035000020F4DF91CF910C9473198C2FDF91CF9120
:103510000C9483191F93CF93DF93FB011281112326
:1035200009F4BCC0EC010E942D0E8272CD3CFCE57A
:10353000DF0709F497C008F043C0C73CECE5DE079D
:1035400009F47CC0D8F4C43C9CE5D90709F46AC0EE
:1035500038F4C33CDC4509F0A4C00E948E19A0C019
:10356000C53C9CE5D90709F462C0C63CDC4509F0BE
:1035700098C047EA56E16AE976E15DC0CA3CFCE5DD
:10358000DF0709F465C070F4C83CECE5DE0709F418
:103590005AC0C93CDC4509F084C046EB56E165ECF5
:1035A00076E149C0CB3C9CE5D90709F456C0CC3C38
:1035B000DC4509F076C04CE355E165E275E13BC0BE
:1035C000C23DFCE5DF0709F45AC098F4CF3C9CE506
:1035D000D90709F44EC008F44AC0C03DFCE5DF0736
:1035E00009F44AC0C13DDC4509F05BC06EE089E0EA
:1035F0004EC0C53D9CE5D90709F447C050F4C33D12
:10360000FCE5DF07F9F1C43DDC4509F04AC088E17B
:1036100042C0C63D9CE5D907E9F1CE35DD4509F448
:103620003FC03FC040E859E163E779E104C043E7A8
:1036300059E160E879E10E946F1A32C04AE956E127
:1036400067EA76E1F8CF45EC56E166EB76E1F3CF39
:1036500043EE56E164ED76E1EECF44ED56E163EEE4
:1036600076E1E9CF45E255E16CE375E1E4CF81E035
:1036700012C065E082E00BC068E086E008C064E14B
:103680008FE005C067E185E102C062E289E10E9446
:10369000751A06C083E20E94831902C011E001C0BE
:1036A00010E0812FDF91CF911F91089586E090E087
:1036B0000C948E29682F86E090E00C94A2298091CA
:1036C0009E028470896180939E020C945A1B0E9412
:1036D000090F811104C00E94B10F0E945F1B0E945C
:1036E000561B80939E02282F26952695269530E01E
:1036F0002430310524F08770886180939E02809188
:103700009E0280FF04C086958695869501C080E064
:103710000C94D31C20919E02822F869586958695C7
:10372000482F50E04330510554F48F5F982F990F84
:10373000990F990F822F8770892B80939E02809119
:103740009E02816080939E020E945A1B80919E027D
:103750008695869586950C94D31C80919E02982F11
:10376000969596959695A1F0915E990F990F990F60
:103770008770892B80939E02887F91E009F490E006
:1037800080919E0290FB80F980939E020E945A1BBA
:1037900080919E028695869586950C94D31C809187
:1037A0009E0280FD13C0816080939E02813019F4D7
:1037B00089E080939E0280919E020E945A1B809114
:1037C0009E028695869586950C94D31C08958091CB
:1037D0009E0280FF08C08E7F80939E020E945A1B2B
:1037E00080E00C94D31C089580919E0280FD0C947F
:1037F000E71B0C94CF1B90919E02892F869586958E
:1038000086958F5F8F719770843038F4880F880F9A
:10381000880F892B80939E0202C090939E02809114
:103820009E02887F91E009F490E080919E0290FBD7
:1038300080F980939E020E945A1B80919E02869579
:10384000869586950C94D31C843008F083E0909183
:103850009E029770282F220F220F220F922B9093F7
:103860009E02987F21E009F420E090919E0220FBC7
:1038700090F990939E020C94D31C0E94241C80917A
:103880009E020C945A1B9C01FB018281882349F102
:103890002E3BFCE53F07C9F040F42C3BECE53E072E
:1038A00069F02D3B3C4561F00895203C9CE53907CB
:1038B00091F070F0213C3C4589F0089583E001C00F
:1038C00080E00E943D1C80E008950E94AD1BFBCF6C
:1038D0000E948A1BF8CF0E94F41BF5CF0E94FB1BAD
:1038E000F2CF81E00895879A8F9A08958F9808956E
:1038F0008F9A08951F920F920FB60F9211242F9353
:103900003F934F935F936F937F938F939F93AF9367
:10391000BF93EF93FF930E94781CFF91EF91BF91AB
:10392000AF919F918F917F916F915F914F913F9157
:103930002F910F900FBE0F901F9018951F920F920E
:103940000FB60F9211242F933F934F935F936F9372
:103950007F938F939F93AF93BF93EF93FF932091A8
:1039600088003091890080918600909187006AEFED
:1039700070E00E94F3286B5F7F4F6217730710F4AB
:103980000E94761CFF91EF91BF91AF919F918F9113
:103990007F916F915F914F913F912F910F900FBE4B
:1039A0000F901F9018958F929F92AF92BF92CF92D7
:1039B000DF92EF92FF920F931F93CF93DF93C82F65
:1039C0008430A8F4811114C08091880090918900FE
:1039D000892B51F080916F008D7F80936F008091D3
:1039E0006F008E7F80936F000E94781C11C0C3E02F
:1039F0008091880090918900892B51F480916F000B
:103A0000826080936F0080916F00816080936F006F
:103A1000A0918600B09187002C2F30E00E944B29A6
:103A200023E030E040E050E00E941B290027122FE5
:103A3000232F342F012F122F232F3327809186001D
:103A4000909187006CE070E00E94F3286017710786
:103A500030F0C80169E070E00E94F3285EC08091F8
:103A6000860090918700E0908600F0908700E091BA
:103A70008600F0918700C6E0D0E0BE010E94F328E6
:103A8000060F171F211D311D4801590185E0880CC3
:103A9000991CAA1CBB1C8A95D1F7C701BE010E94C4
:103AA000F3286F01E12CF12CA7019601260F371F97
:103AB000411D511DC501B4010E941B2969017A01F4
:103AC000E0918600F0918700CA01B9010E94E328C5
:103AD0009B01AC01DF010E9461299B01AC01C70180
:103AE000B6010E94E328DC01CB012FE0B695A79533
:103AF000979587952A95D1F70091860010918700B8
:103B000020E030E0081719072A073B0728F46091E6
:103B1000860070918700CB01BC017093890060938F
:103B20008800DF91CF911F910F91FF90EF90DF9070
:103B3000CF90BF90AF909F908F90089508950E946E
:103B4000731C82E08093800089E1809381008FEF75
:103B50009FEF90938700809386000C94671B869A52
:103B600021B32F7B31B330644FB7F894FC01CB0104
:103B7000880F991F680F791F6E0F7F1FE617F707D1
:103B800089F0819198E031BB000000C087FF21BB24
:103B9000880F000000C000C000C021BB00C09A9583
:103BA00091F7ECCF4FBF8FE594E00197F1F700C09C
:103BB00000000895CF93DF93EC01FB0182818823FD
:103BC00009F426C1C430FDE5DF0760F4CB3F9CE576
:103BD000D90768F49E0122503C452431310508F094
:103BE00018C105C0C236EDE5DE0709F012C10E941A
:103BF0001C0F9093800280937F02C031FCE5DF07A9
:103C000009F4CAC008F041C0C8309CE5D90709F4DE
:103C1000A4C0F0F4C430FCE5DF0709F48CC068F4FC
:103C2000C2309CE5D90709F482C0C330DC4509F0F5
:103C3000E5C080917F028260DFC0C630FCE5DF070F
:103C400009F483C008F085C080917F028860D4C0E9
:103C5000CC309CE5D90709F490C068F4CA30FCE583
:103C6000DF0709F47EC008F084C00E94D308809169
:103C70007F028068C1C0CE309CE5D90709F481C0BD
:103C800008F086C080917F0294C0CD3FFCE5DF073D
:103C900009F47BC038F5C4319CE5D90709F49AC012
:103CA00058F4C231FCE5DF0709F47AC008F07EC0A1
:103CB00080917F028F7BA0C0CB3F9CE5D907F1F1BB
:103CC00008F03FC0C531DC4509F098C080917F0203
:103CD00082FB222720F991E0922790FB82F990FB4A
:103CE00083F98AC0C1308DE5D80709F467C050F464
:103CF00080918002CF3FECE5DE07C1F108F05BC0A8
:103D00008D7F65C0C3308DE5D80709F471C008F414
:103D10006DC0C236DD4509F071C080917F0284FB21
:103D2000222720F991E0922790FB84F965C08091C9
:103D30007F02816061C080917F0216C08091800205
:103D400016C080918002826042C080917F028061B3
:103D500053C080917F0280624FC080917F02806457
:103D60004BC080917F028860846046C08260816021
:103D70002EC080917F028E7F3FC080917F028D7F19
:103D80003BC080917F02877F37C08091800214C042
:103D900080917F028F7E30C080917F028F7D2CC00A
:103DA0000E94D30880917F028F7726C080917F0286
:103DB000877F8B7F21C08D7F8E7F09C0809180029D
:103DC000982F909591708E7F892B90FB81F980932D
:103DD000800214C00E94D30880917F0287FB2227B3
:103DE00020F991E0922790FB87F906C081E001C09D
:103DF00080E00E94B30F02C080937F0280917F0217
:103E0000909180020E942D0F0E94D30880E001C093
:103E100081E0DF91CF910895CF93DF9386319C4568
:103E200041F5EB010E942D0E982F8A81209102010D
:103E300030910301882379F09A7A81E009F480E0D7
:103E400080934E02911102C069E201C065E3C9018D
:103E50000E94F4200AC080914E02811102C069E2E2
:103E600001C065E3C9010E94FF200E94720E80E03C
:103E700001C081E0DF91CF9108950F931F93CF93FD
:103E8000DF93C42FD22FFC0182818823C9F0409395
:103E900051020E94AF219093500280934F0280E222
:103EA0008C0F883008F057C0C77081E001C0880FC0
:103EB000CA95EAF7DF91CF911F910F910C943D06BF
:103EC00080915102481330C080914F02909150026E
:103ED0000E94C721883C910538F510E21D0FCD17CF
:103EE000B9F080E28C0F883040F4C77081E001C0E7
:103EF000880FCA95EAF70E944406183028F581E039
:103F00009D2F977001C0880F9A95EAF70E943D0691
:103F1000802F0E9434061830F0F4D77081E001C081
:103F2000880FDA95EAF70AC080E28C0F883098F49F
:103F3000C77081E001C0880FCA95EAF7DF91CF9181
:103F40001F910F910C944406802FDF91CF911F9108
:103F50000F910C943406DF91CF911F910F9108952A
:103F60000F939C01CB01243F4CE5340731F188F4D9
:103F7000293DFCE53F07D9F02A3D4CE5340779F1AE
:103F8000283D3C45A9F506E221EE41EE68ED7CE5D1
:103F90002BC0263FFCE53F07E1F0A8F0273F3C455A
:103FA00039F507E225EE46EE67EF7CE51DC007E236
:103FB00025EE45EE69ED7CE517C006E221EE40EE08
:103FC00064EF7CE511C007E225EE44EE65EF7CE589
:103FD0000BC006E221EE42EE66EF7CE505C008E28A
:103FE00021E045EE6AED7CE50E943D1F80E008C0BF
:103FF000FC018281882319F01092510201C081E0F6
:104000000F9108959093B7018093B601089590930E
:104010005702809356020895E0915602F09157029C
:10402000309721F00190F081E02D099480E008950F
:10403000E0915602F0915702309799F020912301B8
:10404000222359F020917F0227FF07C0DC012C9129
:1040500011962C93119726E02C930280F381E02D8A
:104060000994089520915402309155022817390778
:1040700071F09093550280935402E0915602F091B2
:104080005702309721F00680F781E02D09940895BA
:1040900020915202309153022817390771F0909302
:1040A000530280935202E0915602F09157023097EA
:1040B00021F00084F185E02D09940895FC013296E9
:1040C00080912301882331F080917F0287FF02C015
:1040D0009EE101C096E080E0915028F021912223DA
:1040E000D9F38F5FF9CF0895662351F12091230111
:1040F0002223E9F020917F0227FF19C0462F469521
:10410000469546954E31E0F4677021E030E002C0FC
:10411000220F331F6A95E2F7FC01E40FF11D828143
:1041200090E02823392381E0232B69F409C0FC01A6
:10413000329608962191621729F0E817F907D1F70E
:1041400080E0089581E008959C01FC0132969FEF84
:1041500080E04191461789F09F3F19F4411101C059
:10416000982F8F5F8630A9F79F3F39F0F901E90F4B
:10417000F11D97FDFA956283089508959C012A5FC9
:104180003F4FFC014281461301C012820196821703
:104190009307B9F70895262F2695269526952E3153
:1041A00068F4FC01E20FF11D677021E030E001C00E
:1041B000220F6A95EAF78281282B22830895262F01
:1041C0002695269526952E3170F4FC01E20FF11DFF
:1041D000677021E030E001C0220F6A95EAF7209570
:1041E000828128232283089520912301222329F00C
:1041F00020917F0227FD0C94CB200C94A4202091C9
:104200002301222329F020917F0227FD0C94DF2037
:104210000C94BE2020912301FC013296222331F020
:1042200080917F0287FF02C08EE101C086E0DF013E
:104230001D928A95E9F7089508950C941C2183E056
:10424000809358020C941D21811102C081E001C0AD
:1042500082E0809358020C941D210C94242181E06B
:10426000809358020C941D210C942F210895809165
:10427000A702843031F10E9452031092590220E4C7
:1042800088E190E00FB6F894A895809360000FBE87
:104290002093600083B7817F846083BF83B7816090
:1042A00083BF7894889583B78E7F83BF0FB6F894C9
:1042B000A8958091600088618093600010926000F2
:1042C0000FBE089508950C946221CF930E9463213C
:1042D0000E9493130E946221C0E08C2F0E94CB1297
:1042E000811104C0CF5FC630C1F701C081E0CF911A
:1042F00008950E94D3080C94CE031F920F920FB61C
:104300000F9211248F939F93AF93BF938091590283
:10431000811113C080919F029091A002A091A102EF
:10432000B091A2024196A11DB11D80939F0290936E
:10433000A002A093A102B093A202BF91AF919F915E
:104340008F910F900FBE0F901F90189582E084BD43
:1043500093E095BD9AEF97BD80936E0008952FB7B7
:10436000F89480919F029091A002A091A102B09137
:10437000A2022FBF08952FB7F89460919F02709109
:10438000A0028091A1029091A2022FBF08959C01EA
:104390004FB7F89480919F029091A002A091A10242
:1043A000B091A2024FBF821B930B089578941F9285
:1043B0000F920FB60F9211248F939F93AF93BF93D9
:1043C00080919F029091A002A091A102B091A202BF
:1043D0000196A11DB11D80939F029093A002A0930E
:1043E000A102B093A202BF91AF919F918F910F90C4
:1043F0000FBE0F901F90189581E08093E00080E23F
:104400008093D8001092C9008FE19EE40197F1F7E4
:1044100000C0000087E090EBDC018093B002909335
:10442000B102A093B202B093B3029CE088E10FB650
:10443000F894A895809360000FBE90936000FFCF22
:1044400080917D0208950895CF93DF9320912301F9
:10445000222339F020917F0227FF03C060E222E08F
:1044600002C068E021E02093E9002FEF3091E800DE
:10447000215035FD06C035ED3A95F1F700002111C8
:10448000F5CF2091E80025FF1DC0EC0180912301AC
:10449000811105C040E050E068E070E003C070E0CA
:1044A00040E050E0CE010E9445248091E8008E77E4
:1044B0008093E80080E2FE01ADE5B2E001900D924C
:1044C0008A95E1F7DF91CF91089580935A02709316
:1044D0005C0260935B028091A702843001F582E068
:1044E0008093E9008FEF9091E800815095FD06C020
:1044F00095ED9A95F1F700008111F5CF8091E800D4
:1045000085FF0DC040E050E063E070E08AE592E096
:104510000E9445248091E8008E778093E8000895FA
:10452000BC0184E00C946522BC0183E00C946522FC
:1045300008958091A602811109C00E94D6250E948B
:1045400033268091E20084608093E2000895109207
:10455000A60208950C9434216091A30281E06111B8
:1045600001C080E00C941F219091A70281E094305B
:1045700009F080E06091A3020C94242142E061ECF8
:1045800081E00E944F2542E261EC82E00E944F25CB
:104590009091A70281E0943009F080E06091A3023D
:1045A0000C942D218091A902833009F461C030F46C
:1045B000813071F0823009F49AC008958A3009F48C
:1045C00086C08B3009F46CC0893009F0A8C020C0C7
:1045D0008091A802813A09F0A2C08091E800877F0B
:1045E0008093E8008091AC029091AD02892B21F478
:1045F00060E28DE592E003C060E080E090E070E072
:104600000E9490248091E8008B778093E8000895C1
:104610008091A802813209F082C08091AC02909111
:10462000AD02029708F07BC08091E800877F8093FD
:10463000E8008091E80082FD05C08091A702811109
:10464000F8CF6DC02091F3008091F20090E0922BA2
:10465000029731F48091F100813011F0863021F41D
:104660008091F10080937D028091E8008B7753C0A8
:104670008091A802813A09F052C08091AC029091D9
:10468000AD02892B09F04BC08091E800877F8093B1
:10469000E8008091E80080FFFCCF8091230136C0C4
:1046A0008091A8028132D9F58091AC029091AD023F
:1046B000892BA9F58091E800877F8093E8000E940C
:1046C00084258091AA02809323010C94D3088091C1
:1046D000A802813221F58091E800877F8093E8006D
:1046E0000E9484258091AB0280937E020895809180
:1046F000A802813AA1F48091E800877F8093E800C6
:104700008091E80080FFFCCF80917E028093F100D1
:104710008091E8008E778093E8000C9484250895BA
:1047200084B7877F84BF0FB6F894A8958091600006
:10473000886180936000109260000FBE90E080E876
:104740000FB6F89480936100909361000FBE0C94B3
:104750002F210E94D6250E943326E2EEF0E08081D0
:104760008460808378940C94C82887E191E00C944D
:1047700007208091A7028530A9F48091A702853097
:1047800079F40E9437218091A5028823B1F30E9419
:104790006521882391F30E942F240E94D308EDCF36
:1047A0000C947921089508950C94D623292F33274A
:1047B00023303105C9F060F42130310581F0223019
:1047C000310509F044C08BE390E02AE434E043C0B3
:1047D00021323105E1F02232310549F138C082E160
:1047E00090E025E834E037C099278130910549F001
:1047F00028F0029761F5EEE1F4E005C0E6E4F4E0AC
:1048000002C0EEE2F4E0849190E09F0124C06115C3
:10481000710541F061307105D1F489E090E025E740
:1048200034E019C089E090E02CE534E014C0611553
:10483000710541F06130710551F48DE690E027E992
:1048400034E009C080E490E024E035E004C080E07A
:1048500090E020E030E0FA0131832083089580E188
:1048600089BD82E189BD09B400FEFDCF8091D800E9
:104870008F7D8093D8008091E00082608093E0007B
:104880008091E00081FDFCCF0895CF92DF92EF92FE
:10489000FF920F931F93CF93DF93EC018B017A016B
:1048A0000E94A325811133C0E114F10439F0F7010E
:1048B00080819181081B190BC80FD91FC12CD12CE5
:1048C0000115110519F18091E80085FD16C0809150
:1048D000E8008E778093E800E114F10449F0F701D5
:1048E00080819181C80ED91ED182C08285E00FC01F
:1048F0000E94A325882321F30AC089918093F100A7
:1049000001501109FFEFCF1ADF0ADACF80E0DF9103
:10491000CF911F910F91FF90EF90DF90CF9008956E
:104920002091AE023091AF022617370748F061158B
:10493000710539F42091E8002E772093E80001C03A
:10494000B901FC0120E06115710579F18091A702A0
:104950008823F1F18530F1F18091E80083FD3CC0BE
:104960008091E80082FD2EC08091E80080FFEBCFAF
:104970002091F3008091F20090E0922B6115710577
:1049800051F08830910538F421912093F100615065
:1049900071090196F3CF21E0089709F020E080919A
:1049A000E8008E778093E800CECF2111CFCF0AC0E8
:1049B0008091A702882361F0853061F08091E80042
:1049C00083FD0AC08091E80082FFF2CF80E0089565
:1049D00082E0089583E0089581E008952091AE0279
:1049E0003091AF022617370748F06115710539F489
:1049F0002091E8002E772093E80001C0B901FC0166
:104A000020E06115710591F18091A702882309F4D6
:104A100040C0853009F43FC08091E80083FD3DC06F
:104A20008091E80082FD2FC08091E80080FFE9CFEF
:104A30002091F3008091F20090E0922B61157105B6
:104A400059F08830910540F424912093F10031967B
:104A5000615071090196F2CF21E0089709F020E03A
:104A60008091E8008E778093E800CBCF2111CCCFE6
:104A70000AC08091A702882361F0853061F080919F
:104A8000E80083FD0AC08091E80082FFF2CF80E059
:104A9000089582E0089583E0089581E00895982FB5
:104AA000973068F59093E900981739F07091EC0011
:104AB0002091ED005091F00003C0242F762F50E09C
:104AC00021FD02C09F5FECCF3091EB003E7F309321
:104AD000EB003091ED003D7F3093ED003091EB0025
:104AE00031603093EB007093EC002093ED00509315
:104AF000F0002091EE0027FDE5CF80E008958F7053
:104B00008093E90081E008958091A80287FF11C099
:104B10008091E80082FD05C08091A7028111F8CF45
:104B200011C08091E8008B770BC08091A702882389
:104B300049F08091E80080FFF8CF8091E8008E77FF
:104B40008093E80008952091E4003091E50095E617
:104B50004091EC00842F817040FF23C08091E800D9
:104B600080FD1DC08091A702882399F0853099F0BF
:104B70008091EB0085FD11C04091E4005091E5006B
:104B80002417350729F3915011F09A01E1CF84E001
:104B9000089582E0089583E0089581E0089580E01B
:104BA00008954091E80042FFDDCF08950E94442619
:104BB0000E944C26E0EEF0E0808181608083E8ED89
:104BC000F0E080818F77808319BCA7EDB0E08C91F5
:104BD0008E7F8C9380818F7E80831092A6020895B1
:104BE0000F931F93CF93DF930E9444260E944C267D
:104BF000C8EDD0E088818F7788838881806888833A
:104C000088818F7D888319BC1092A7021092A3021D
:104C10001092A5021092A40200EE10E0F80180812B
:104C20008B7F808388818160888342E060E080E0C0
:104C30000E944F25E1EEF0E080818E7F8083E2EEDE
:104C4000F0E0808181608083808188608083F801CA
:104C500080818E7F8083888180618883DF91CF917E
:104C60001F910F910895E8EDF0E080818F7E8083A1
:104C7000E7EDF0E080818160808384E082BF81E0A5
:104C80008093A6020C94F025E8EDF0E080818E7F01
:104C900080831092E20008951092DA001092E100F1
:104CA00008951F920F920FB60F9211242F933F93E6
:104CB0004F935F936F937F938F939F93AF93BF9324
:104CC000EF93FF938091E10082FF0BC08091E2009F
:104CD00082FF07C08091E1008B7F8093E1000E94FA
:104CE000C7288091DA0080FF1FC08091D80080FF24
:104CF0001BC08091DA008E7F8093DA008091D9000A
:104D000080FF0DC080E189BD82E189BD09B400FE4C
:104D1000FDCF81E08093A7020E94992205C019BCB3
:104D20001092A7020E94A7228091E10080FF19C083
:104D30008091E20080FF15C08091E2008E7F809319
:104D4000E2008091E20080618093E2008091D800CF
:104D500080628093D80019BC85E08093A7020E94EE
:104D6000AC228091E10084FF30C08091E20084FF9A
:104D70002CC080E189BD82E189BD09B400FEFDCF70
:104D80008091D8008F7D8093D8008091E1008F7E44
:104D90008093E1008091E2008F7E8093E200809119
:104DA000E20081608093E2008091A302882311F0E9
:104DB00084E007C08091E30087FD02C081E001C06C
:104DC00083E08093A7020E94B4228091E10083FFD8
:104DD00029C08091E20083FF25C08091E100877F98
:104DE0008093E10082E08093A7021092A302809159
:104DF000E1008E7F8093E1008091E2008E7F8093BE
:104E0000E2008091E20080618093E20042E060E095
:104E100080E00E944F258091F00088608093F00030
:104E20000E94AA22FF91EF91BF91AF919F918F9124
:104E30007F916F915F914F913F912F910F900FBE96
:104E40000F901F9018951F920F920FB60F9211247A
:104E50002F933F934F935F936F937F938F939F9382
:104E6000AF93BF93CF93DF93EF93FF93C091E9008C
:104E7000CF708091EC00D82FD17080FDD0E81092D7
:104E8000E9008091F000877F8093F00078940E9481
:104E900067271092E9008091F00088608093F0000D
:104EA000CD2BCF70C093E900FF91EF91DF91CF91AF
:104EB000BF91AF919F918F917F916F915F914F9132
:104EC0003F912F910F900FBE0F901F9018951F9339
:104ED000CF93DF93CDB7DEB7AA970FB6F894DEBFB6
:104EE0000FBECDBFE8EAF2E08091F100819322E0AD
:104EF000E03BF207C9F70E94D2228091E80083FFCD
:104F00002EC18091A8029091A902492F50E04A3009
:104F1000510508F024C1FA01E059FF4F0C943D29D6
:104F2000803821F0823809F01AC108C08091A402AB
:104F30009091A502992389F082600FC08091AC0204
:104F40008F70873008F00BC18093E9008091EB00EF
:104F500085FB882780F91092E9009091E800977FFF
:104F60009093E8008093F1001092F100D1C0282FB7
:104F70002D7F09F0F4C0882319F0823061F0EFC072
:104F80008091AA02813009F0EAC0933009F080E0F4
:104F90008093A5022EC08091AA0281112AC080911F
:104FA000AC028F702FEF280F263008F0D8C0809306
:104FB000E9002091EB0020FF1CC0933021F4809188
:104FC000EB00806214C09091EB0090619093EB0035
:104FD00021E030E0A90102C0440F551F8A95E2F795
:104FE0004093EA001092EA008091EB008860809381
:104FF000EB001092E9008091E800877F8093E80041
:105000000E948425ACC08111AAC01091AA021F770A
:105010008091E3008078812B8093E3008091E80009
:10502000877F8093E8000E9484258091E80080FFBC
:10503000FCCF8091E30080688093E300111102C0EF
:1050400082E001C083E08093A70289C0805882304B
:1050500008F085C08091AA029091AB028C3D53E08C
:10506000950779F583E08A838AE289834FB7F894BC
:10507000DE01139620E03EE051E2E32FF0E0509392
:105080005700E49120FF03C0E295EF703F5FEF709F
:105090008E2F90E0EA3010F0C79601C0C0968D9335
:1050A0009D932F5F243149F74FBF8091E800877FA0
:1050B0008093E8006AE270E0CE0101960E9490249D
:1050C00016C06091AC027091AD02AE014F5F5F4FB0
:1050D0000E94D423BC01892B09F441C09091E800BF
:1050E000977F9093E80089819A810E94EE248091B5
:1050F000E8008B778093E80032C0803881F580919A
:10510000E800877F8093E8008091A3028093F100FC
:105110008091E8008E7772CF811121C08091AA0220
:105120009091AB0299270297D4F48091E800877F91
:105130008093E8008091AA028093A3020E948425B4
:105140008091A302811106C08091E30087FD02C017
:1051500081E001C084E08093A7020E94BE2280917A
:10516000E80083FF0AC08091E800877F8093E80011
:105170008091EB0080628093EB00AA960FB6F894C2
:10518000DEBF0FBECDBFDF91CF911F91089508956F
:10519000CF938091A7028823A1F0C091E900CF703E
:1051A0009091EC00892F817090FD80E8C82B1092BF
:1051B000E9008091E80083FD0E946727CF70C093CB
:1051C000E900CF910895DB018F939F930E9461299D
:1051D000BF91AF91A29F800D911DA39F900DB29F93
:1051E000900D11240895AA1BBB1B51E107C0AA1FF3
:1051F000BB1FA617B70710F0A61BB70B881F991F78
:105200005A95A9F780959095BC01CD01089597FB1B
:10521000072E16F4009407D077FD09D00E94F328DA
:1052200007FC05D03EF4909581959F4F08957095A9
:1052300061957F4F0895A1E21A2EAA1BBB1BFD01A9
:105240000DC0AA1FBB1FEE1FFF1FA217B307E40765
:10525000F50720F0A21BB30BE40BF50B661F771FBD
:10526000881F991F1A9469F760957095809590959D
:105270009B01AC01BD01CF010895EE0FFF1F05900A
:10528000F491E02D09940E944B29332312F48A1BD8
:105290009B0B0C945C29A29FB001B39FC001A39FFC
:1052A000700D811D1124911DB29F700D811D11245F
:1052B000911D08950E944B29B7FF0895821B930BFF
:1052C00008950E944B29A59F900DB49F900DA49F17
:1052D000800D911D11240895B7FF0C9461290E943F
:1052E0006129821B930B0895FC014150504030F01E
:1052F00001900616D1F73197CF0108958827992795
:105300000895FB01DC0104C08D910190801921F406
:1053100041505040C8F7881B990B0895F999FECF6A
:1053200092BD81BDF89A992780B50895A6E1B0E0B5
:1053300044E050E00C94C829A8E1B0E042E050E01D
:105340000C94C829262FF999FECF92BD81BDF89AF9
:10535000019700B4021639F01FBA20BD0FB6F894B9
:10536000FA9AF99A0FBE08950396272F0E94A3294F
:105370000E94A229252F0E94A329242F0C94A3293F
:105380000196272F0E94A3290C94A229DC01CB01AE
:10539000FC01F999FECF06C0F2BDE1BDF89A319645
:1053A00000B40D9241505040B8F70895F894FFCFE3
:1053B000C8000A02010102000400040401191A1BBA
:1053C0001C1D1E1F2021222022242298229422907C
:1053D00022232201E200E900EA00B500B600B7008E
:1053E000CD008301CC008A019201940121022302A5
:1053F00024022502260227022A02B300B4006F000D
:105400007000818283E200E900EA00B500B600B7CF
:1054100000CD008301CC008A019201940121022376
:105420000224022502260227022A02B300B4006FDA
:10543000007000818283F0F1C667909192939495F9
:105440000001020202020606060909090909090FFC
:105450000F0F0F0F0F1515151819191919191919FB
:06546000191919232400B4
:00000001FF
