:100000000C949D030C94E4030C94E4030C94E4031B
:100010000C94E4030C94E4030C94E4030C94E403C4
:100020000C94E4030C94E4030C94022F0C94D42F4E
:100030000C9469290C94E4030C94E4030C94E403F9
:100040000C94E4030C94E4030C94E4030C94E40394
:100050000C94E4030C94DE290C94E4030C94E40364
:100060000C94E4030C94E4030C94E4030C94E40374
:100070000C94E4030C94E4030C94E4030C94E40364
:100080000C94E4030C94E4030C94E4030C94E40354
:100090000C94E4030C94E4030C94E4030C94E40344
:1000A0000C94E4030C94E4030C94E4038B078B0797
:1000B000B707B7071F085709570957093D08D2085E
:1000C000E308E3084709570957095009F709F709F1
:1000D000090A090A000A090A090A090AF709F709B7
:1000E000050A090A090A050A41306830603168309A
:1000F0006031B430D73060312E313D31165C1E0096
:100100001F002000210022002300240025002600DB
:1001100027002D002E002A0049002B0014001A0091
:100120000800150017001C0018000C001200130036
:100130002F00300031004C00390004001600070089
:1001400009000A000B000D000E000F003300340000
:10015000310028004B00E10000001D001B000600DC
:100160001900050011001000360037003800E500C6
:1001700052004E00E000E300E2000000000000003A
:100180002C0000000000E60001510000500051006A
:100190004F0035023A003B003C003D003E003F006E
:1001A00040004100420043004400450001000100BE
:1001B000005C0100010001000100010001000100DC
:1001C0000100010001000100010001000100010027
:1001D0000100010001000100010001000100010017
:1001E0000100010001000100010001000100000008
:1001F000C35CC45CC55CC65CC75CCA5CCB5CCC5CE5
:10020000CD5C01000100A900AE0001000100010069
:1002100000000000000001000000000001000100DB
:100220000000AC00AA00AB0044454255473A2064A8
:10023000697361626C65642E0A0044454255473A11
:1002400020656E61626C65642E0A004F6E6573688E
:100250006F743A206163746976653A2025640A00F8
:100260000A0025303258006B6579626F6172645FF5
:100270007365745F6C65643A20000A00253031367E
:1002800062003A200025303258000A722F63203075
:100290003132333435363738394142434445460AE2
:1002A00000726762206D61747269782073657420D2
:1002B0007370656564205B25735D3A2025750A00BF
:1002C000726762206D61747269782073657420684A
:1002D0007376205B25735D3A2025752C25752C25BA
:1002E000750A00726762206D6174726978206D6FA3
:1002F0006465205B25735D3A2025750A007267628C
:10030000206D617472697820746F67676C65205B1B
:1003100025735D3A207267625F6D61747269785F00
:10032000636F6E6669672E656E61626C65203D2045
:1003300025750A007267625F6D61747269785F6922
:100340006E69745F64726976657273207267625F4A
:100350006D61747269785F636F6E6669672E6D6F29
:100360006465203D20302E205772697465206465D5
:100370006661756C742076616C75657320746F208E
:10038000454550524F4D2E0A007267625F6D617491
:100390007269785F696E69745F6472697665727399
:1003A000206565636F6E666967206973206E6F7480
:1003B00020656E61626C65642E0A007267625F6D13
:1003C00061747269785F636F6E6669672E666C61CF
:1003D0006773203D2025640A007267625F6D617457
:1003E0007269785F636F6E6669672E7370656564A6
:1003F000203D2025640A007267625F6D6174726936
:10040000785F636F6E6669672E6873762E76203D1F
:100410002025640A007267625F6D61747269785F9B
:10042000636F6E6669672E6873762E73203D202594
:10043000640A007267625F6D61747269785F636FEE
:100440006E6669672E6873762E68203D2025640AE3
:10045000007267625F6D61747269785F636F6E6668
:1004600069672E6D6F6465203D2025640A00726700
:10047000625F6D61747269785F636F6E6669672E23
:10048000656E61626C65203D2025640A00726762BA
:100490005F6D61747269785F636F6E66696720452E
:1004A0004550524F4D0A006565636F6E6669675F20
:1004B0007570646174655F7267625F6D61747269A3
:1004C000785F64656661756C740A00000101010162
:1004D00001010101010202020202020202020303FF
:1004E00003030303030304040404040404050505CF
:1004F0000505060606060607070707070808080891
:10050000090909090A0A0A0B0B0B0C0C0C0D0D0D3D
:100510000E0E0E0F0F0F10101111111212131314D3
:1005200014151516161717181819191A1A1B1B1C4B
:100530001D1D1E1E1F2020212222232424252626A5
:10054000272829292A2B2C2D2D2E2F3031323233DA
:100550003435363738393A3B3C3D3E3F40414243E3
:100560004445464748494A4C4D4E4F5051535455C7
:100570005658595A5B5D5E5F616264656668696B77
:100580006C6D6F7072737577787A7B7D7E808283F5
:100590008587888A8C8E8F91939596989A9C9EA039
:1005A000A2A3A5A7A9ABADAFB1B3B5B7BABCBEC046
:1005B000C2C4C6C9CBCDCFD1D4D6D8DBDDDFE2E40F
:1005C000E7E9EBEEF0F3F5F8FAFDFF0A002530322B
:1005D0005820006B6579626F6172645F7265706F3D
:1005E00072743A20005B735D005B575D005B535D86
:1005F000005B525D005B445D005B435D001603439E
:100600000061006E006F0065002000470065006E0D
:1006100000320000001E0350006500720063006598
:10062000006E0074002000530074007500640069BF
:10063000006F0000000403090409025B00030100CD
:10064000A0FA0904000001030101000921110100C1
:10065000012240000705810308000A090401000186
:100660000300000009211101000122320007058268
:100670000320000A090402000203000000092111FE
:100680000100012222000705830320000107050362
:10069000032000011201000200000008129CF089F2
:1006A0000100010200010631FF0974A1010975155D
:1006B0000026FF009520750881020976150026FFA7
:1006C00000952075089102C005010980A1018503EC
:1006D00019012AB700150126B70095017510810090
:1006E000C0050C0901A101850419012AA002150108
:1006F00026A002950175108100C005010906A1011F
:10070000050719E029E71500250195087501810203
:100710009501750881010507190029FF150026FFBD
:1007200000950675088100050819012905950575CC
:10073000019102950175039101C011241FBECFEFF5
:10074000DAE0DEBFCDBF04B603FE27C080911605F8
:1007500090911705A0911805B09119058730904B1D
:10076000A740B04BD1F410921605109217051092C5
:1007700018051092190514BE84B7877F84BF0FB681
:10078000F894A89580916000886180936000109231
:1007900060000FBEE0E0F8E3099512E0A0E0B1E0F0
:1007A000EAEDF5E602C005900D92A03FB107D9F73A
:1007B00025E0A0EFB2E001C01D92A631B207E1F73B
:1007C0000E9486160C94EB320C940000FF93EF937A
:1007D000E091F002F091F102309709F00995EF9164
:1007E000FF910895FC018591803011F0EFDFFBCF80
:1007F0000895FF27E0E230E247FF0CC0419597FFE4
:1008000009C0EDE26095709580959095611D711D10
:10081000811D911D27FF02C0219530E350E2AA27D8
:10082000660F771F881F991FAA1FA41710F0A41B1B
:1008300063955A95A9F7AA3008F0A95FA05DAF9318
:10084000F395611571058105910541F7ED3211F4BC
:10085000EF93F395F21718F43F93F395FBCF8F9135
:10086000B5DFFA95E1F70895E991F9918591803026
:1008700021F0853219F0AADFF9CF089520E0E8943D
:1008800055915532C1F3503311F4689455915A3350
:1008900048F4505390F3220F022E220F220F200D06
:1008A000250FF4CF0EF4219589919991533619F3C0
:1008B000533729F1533559F1BC0188279927E8941A
:1008C0005C3621F48991999168945591543639F4A4
:1008D00046EF7EF077FF0DC08FEF9FEF0AC05537D0
:1008E0004AE039F0583540E121F0523642E009F053
:1008F0000895FF93EF937DDFEF91FF91B7CFFF93C3
:10090000EF93FC0181918030B9F360DFFBCFFF935F
:10091000EF9368DFF1CFDF93CF93CDB7DEB72596A6
:10092000A3DFCF91DF9108956E9A769A0895CF93C1
:10093000C82F0E94C905882329F0C1FD02C0769AFC
:1009400001C0769881E0CF91089580E00E949A23BB
:100950000C940E0581E0089581E008950C94AC0498
:1009600008950C94B0041F93CF93DF9300D000D070
:100970001F92CDB7DEB749835A836B833091F20261
:1009800089819A81311114C0662359F0222349F0DC
:100990000E949B0B182F682F89819A810E94440B1B
:1009A00003C00E946F0B182F69817A81812F04C0C8
:1009B0000E949B0B69817A810F900F900F900F908E
:1009C0000F90DF91CF911F910C949012FC01262F74
:1009D000408151816281738184810C94B30481E0F0
:1009E0000895CF93DF93EC0160E00E94E604BE011E
:1009F000DF91CF910C94B1040E94B4140E94CB05F6
:100A00000E9463230C9437150C9433150E94FB222B
:100A100080E00E94CC0581E00C949A2308950C9408
:100A20000E050E94E5090E940F052FEF84E39CE06C
:100A3000215080409040E1F700C000000C94042A4F
:100A40000F931F93CF93DF938C0161E00E94E60424
:100A5000EC01B8010E94AE04882309F462C0B80119
:100A6000CE010E94DD27882309F45BC0B801CE01C6
:100A70000E940726882309F454C0B801CE010E94C1
:100A80003927882309F44DC0B801CE010E944025C2
:100A9000882309F446C0F80182818823D9F1CF3D2B
:100AA0008CE5D80779F140F4C115FCE5DF0791F03A
:100AB000C130DC4591F02EC0CC35EDE5DE0741F1CB
:100AC000CD35FDE5DF0709F1CB35DD4519F50E9490
:100AD000AF1020C00E94110524C080918503C82F4B
:100AE000C095C170C0FB80F980938503CC2329F0A9
:100AF0008AE392E00E94F20314C088E292E00E942E
:100B0000F20310C00E9463110CC00E94A61002C024
:100B10000E94B210C801DF91CF911F910F910C94E8
:100B2000AA04C0E08C2FDF91CF911F910F910895FF
:100B30000E9439280E94CC0580E00E949A230C94E0
:100B4000A5048295982F937344E0949F90011124FB
:100B50008C7C86958695282B822F8575880F2A7A1E
:100B60002695822B0895CF93DF93D92F0E94A1055C
:100B7000C82F8D2F0E94A1052C2F30E0322F222765
:100B8000A901482BCA01DF91CF91089508950C94D3
:100B9000C60581E008950895CF93C82F0E94C70528
:100BA0008C2F0E949704CF910895CF93DF93CDB7F8
:100BB000DEB72B970FB6F894DEBF0FBECDBF4F83C5
:100BC000588769877A878B8761110E94DE0F9E01A3
:100BD0002F5F3F4F86E0F90111928A95E9F785E092
:100BE000FE013796D90101900D928A95E1F789812E
:100BF0009A814C815D81452B31F09F3F31F491E02A
:100C00008F3F19F403C091E001C090E090FF09C04C
:100C100049815A816B817C818D819E810E94FF0E6A
:100C200005C0C9010E94EF048111F2CF2B960FB6C7
:100C3000F894DEBF0FBECDBFDF91CF910895FC01C8
:100C4000808191810E94DD0B0895CF93882309F460
:100C50009CC0C82F8238C1F40E94392881FD95C0FC
:100C600069E380913802909139020E94FC280E9429
:100C700010102FEF81EE94E0215080409040E1F77A
:100C800000C0000069E319C0833801F50E943928CB
:100C900080FD7BC063E580913802909139020E940B
:100CA000FC280E9410102FEF81EE94E0215080402C
:100CB0009040E1F700C0000063E580913802909118
:100CC00039020E94FE28CF910C9410108438C1F490
:100CD0000E94392882FD59C067E4809138029091C2
:100CE00039020E94FC280E9410102FEF81EE94E040
:100CF000215080409040E1F700C0000067E4DDCF64
:100D00008CEF8C0F813AD0F46C2F80913802909147
:100D100039020E94C628882349F06C2F809138023E
:100D2000909139020E94FE280E9410106C2F809131
:100D30003802909139020E94FC28C5CF80E28C0FC6
:100D4000883048F4C77081E001C0880FCA95EAF77F
:100D50000E94C10FB8CFEBE5EC0FE33040F4F0E0B8
:100D6000E058FD4F808190E0CF910C948E28C85AB6
:100D7000C73158F4EC2FF0E0EE0FFF1FEE5AFD4F95
:100D800080819181CF910C94A428CF9108958823DC
:100D900009F45BC0682F823879F40E94392881FFFA
:100DA00054C069E380913802909139020E94FC2876
:100DB0000E94101069E310C08338B1F40E943928F2
:100DC00080FF43C063E580913802909139020E9410
:100DD000FC280E94101063E580913802909139023E
:100DE0000E94FE280C941010843879F40E9439284F
:100DF00082FF2BC067E480913802909139020E94F3
:100E0000FC280E94101067E4E7CF8CEF860F813A30
:100E100018F380E2860F883048F4677081E001C0E3
:100E2000880F6A95EAF70E94C70FDCCF8BE5860F23
:100E3000833020F480E090E00C948E28685A67316B
:100E400020F480E090E00C94A42808951F93CF93A1
:100E5000DF93182FEB010E942506209741F08FE9C0
:100E60009FE00197F1F700C000002197F6CF812F96
:100E7000DF91CF911F910C94C706893319F060E080
:100E800070E002C060E570E00C942607882321F032
:100E90000E94C10F0C9410100895882321F00E9425
:100EA000C70F0C9410100895CF92DF92EF92FF922B
:100EB0000F931F93CF93DF937C01162FC72FFC0155
:100EC000D281058102950F700E94B70F8823B9F077
:100ED000DD23A9F08C2F807F803421F080E2810F08
:100EE000883068F08091FF0382FD09C082E00E9493
:100EF00060100E94B70F91E0D82ED92601C0D12CE6
:100F0000CC2EC2948FE0C8228C2D90E0FC01EA5ACE
:100F1000FF4F0C94E9318C2F807FCF70882311F024
:100F2000C295C07FDD2399F0CC2309F49BC180E2F8
:100F3000810F883010F0111104C08C2F0E94C10F56
:100F400003C08C2F0E94D10F0E9410108BC1812FE3
:100F50000E94C706CC2309F4AAC180E2810F883021
:100F600038F1112329F18C2F0E94D70F24C08C2F28
:100F7000807FCF70803211F0C295C07F112319F0AD
:100F80001130A1F13DC08091FF0382FF17C0DD2326
:100F900049F0CC2329F08C2F0E94C10F0E94101021
:100FA00080E061C180E00E94C706CC2309F47FC1C4
:100FB0008C2F0E94C70F0E94101079C1DD2371F0A1
:100FC000002341F0013031F40E94F10F8C2B0E947C
:100FD000F90F6DC10E94F10F8C2B1DC0002319F079
:100FE000013009F464C10E94061025C0DD2321F000
:100FF000063008F05CC10EC0053008F058C11BC0B7
:10100000DD2361F0002331F0F701858180FF2AC1E3
:101010008F7085838C2F0E94460749C1002359F0A9
:10102000193309F030C1FFEF27EE83E0F150204083
:101030008040E1F726C18C2F0E944D0738C18C2FCC
:1010400086958695837019F0813061F030C1DD237B
:1010500021F0812F9C2F937002C080E090E00E94CD
:101060008E282DC1DD2321F0812F9C2F937002C08B
:1010700080E090E00E94A42822C18C2F837009F0A8
:1010800045C0D11118C1412F429546954770440F74
:10109000440F612F6F70862F90E0A0E0B0E0042E27
:1010A00004C0880F991FAA1FBB1F0A94D2F714FF10
:1010B00010C00FE010E020E030E004C0000F111F6E
:1010C000221F331F4A95D2F7009510952095309531
:1010D00003C000E010E09801C695C695C370BC013E
:1010E000CD01602B712B822B932BC23049F058F429
:1010F000C13019F00E945A0ADEC00E94480ADBC0C3
:101100000E946C0AD8C00E94460AD5C0DD2319F09F
:101110008C2F817001C08695882309F4CCC0412FA3
:10112000429546954770440F440F612F6F70862F8C
:1011300090E0A0E0B0E0042E04C0880F991FAA1F21
:10114000BB1F0A94D2F714FF10C00FE010E020E09C
:1011500030E004C0000F111F221F331F4A95D2F741
:10116000009510952095309503C000E010E098019F
:10117000C695C695C370BC01CD01602B712B822B27
:10118000932BC23049F058F4C13019F00E941F0B64
:1011900092C00E940D0B8FC00E94310B8CC00E9428
:1011A000800A89C0CF70DD2339F08C2F0E94A60AF7
:1011B000812F0E9446077FC0812F0E944D078C2FF0
:1011C0000E94C70A78C0123F21F128F4103F41F075
:1011D000113FC1F043C0133F19F1143F79F03EC0F5
:1011E000DD2341F0053008F062C08C2F8F710E9422
:1011F000EC0A5DC0063008F05AC0F7CF8091FF03BB
:1012000082FF18C0DD2339F08C2F8F710E94A60A4F
:101210004EC0DD23C9F38C2F8F710E94C70A47C0CF
:10122000DD2329F08C2F8F710E94910A40C00E940B
:101230008C0A3DC0DD2349F0CF718C2F0E94A60A95
:1012400063E08C2F0E94451032C081E00E94601044
:10125000023068F182E00E94601029C0DD2331F085
:10126000002391F2812F0E94250621C0002399F2CC
:10127000193349F49FEFE7EEF3E09150E040F0407E
:10128000E1F700C00000812F0E94C70610C04C2F5C
:101290004F70612FC7010E948C120E940B0C0FC06F
:1012A0004C2F4F70612FC7010E948F1208C088EF2A
:1012B0008C0D843020F40E9439280E94CC05DD205A
:1012C000C9F00E94B30F80FD15C0F70112820E9481
:1012D000AD0F0E94A60AC7010E949B090E94AD0F94
:1012E000DF91CF911F910F91FF90EF90DF90CF9002
:1012F0000C94C70ADF91CF911F910F91FF90EF904F
:10130000DF90CF9008950F931F93CF93DF93EC015D
:10131000688179818A810E94E80B8C010E94430BCD
:101320000E94340AB801CE010E945407DF91CF9188
:101330001F910F910895CF93DF93EC0198818981DC
:101340002B813C81232B31F08F3F31F481E09F3F93
:1013500019F403C081E001C080E080FD1DC0CE0112
:101360000E942005811110C00E94B70F8823A1F0B0
:101370008A81882389F08091FF0382FD0DC082E07D
:10138000DF91CF910C946010CE010E948309CE01B1
:10139000DF91CF910C94F104DF91CF91089580E01B
:1013A00090E00E948E2880E090E00E94A4280E9495
:1013B000DE0F0E94EE0F0C94101080913802909175
:1013C00039020E9400290C94CF090E94CE0F0C9480
:1013D000DD09E92FE295EF704E2F50E0FA013297C8
:1013E000EE30F105B0F4EA59FF4F0C94E931803F3B
:1013F00091F018F4883E68F40EC0843F51F40BC09D
:10140000883E48F0813F29F406C093FB882780F985
:10141000089580E0089581E00895FC018081918124
:101420000E94DD0B0E94E9090895CF93DF9300D05D
:1014300000D01F92CDB7DEB70F900F900F900F9096
:101440000F90DF91CF910895CF93DF9300D000D01C
:1014500000D0CDB7DEB726960FB6F894DEBF0FBE2C
:10146000CDBFDF91CF910895089508950C94350A6A
:101470000C94360A0E94380A6093290370932A0359
:1014800080932B0390932C030C94CF090C943A0A6D
:101490000F931F930091290310912A0320912B038E
:1014A00030912C03602B712B822B932B1F910F916A
:1014B0000C943A0A0F931F930091290310912A0369
:1014C00020912B0330912C036023712382239323DB
:1014D0001F910F910C943A0A0F931F9300912903C7
:1014E00010912A0320912B0330912C036027712740
:1014F000822793271F910F910C943A0A0C94350A76
:101500000E947E0A6093250370932603809327032D
:10151000909328030C94CF0960E070E0CB010C9409
:10152000800A0F931F9341E050E060E070E08A0171
:101530009B0104C0000F111F221F331F8A95D2F791
:10154000C901B8011F910F910C94800A0F931F934A
:1015500041E050E060E070E004C0440F551F661F9A
:10156000771F8A95D2F78091250390912603A09149
:101570002703B09128038A019B01082B192B2A2BE2
:101580003B2BC901B8011F910F910C94800A0F9356
:101590001F9341E050E060E070E004C0440F551F2D
:1015A000661F771F8A95D2F7409550956095709584
:1015B0008091250390912603A0912703B0912803E1
:1015C0008A019B01082319232A233B23C901B8015F
:1015D0001F910F910C94800A0F931F9341E050E0EC
:1015E00060E070E004C0440F551F661F771F8A95A6
:1015F000D2F78091250390912603A0912703B09103
:1016000028038A019B01082719272A273B27C9019C
:10161000B8011F910F910C94800A0F931F930091B2
:101620002503109126032091270330912803602B76
:10163000712B822B932B1F910F910C94800A0F9387
:101640001F930091250310912603209127033091C9
:10165000280360237123822393231F910F910C94FD
:10166000800A0F931F930091250310912603209168
:1016700027033091280360277127822793271F9122
:101680000F910C94800A08952FE0929F800D1124F1
:10169000E82FE695E695E695877051E001C0550F75
:1016A0008A95EAF785E0E89FF0011124ED50FD4F9F
:1016B00020E030E070E04081CB01022E02C0969520
:1016C00087950A94E2F78170819584278523842782
:1016D00081932F5F3F4F2530310569F708952FE043
:1016E000929F800D1124682F669566956695982FB8
:1016F000977085E0689FB001112440E050E080E0E1
:10170000FB01E40FF51FED50FD4F208130E0092E65
:1017100002C0369527950A94E2F721703327042EEC
:1017200001C0220F0A94EAF7822B4F5F5F4F4530CA
:10173000510531F70895BF92CF92DF92EF92FF9259
:101740000F931F93CF93DF938C01C0902503D0900C
:101750002603E0902703F0902803809129039091BD
:101760002A03A0912B03B0912C03C82AD92AEA2A74
:10177000FB2ACFE1D0E0D701C6010C2E04C0B695FC
:10178000A795979587950A94D2F780FD04C0219775
:1017900090F7B12C07C0BC2EB8018C2F0E94C0134B
:1017A0000197A9F38B2DDF91CF911F910F91FF909E
:1017B000EF90DF90CF90BF900895CF93DF93EC012F
:1017C0000E949B0BBE010E94C013DF91CF91089530
:1017D0001F93CF93DF93EB019091F202992321F0B5
:1017E000CB010E94DD0B13C0882349F0CB010E947E
:1017F0009B0B182F682FCE010E94440B04C0CB0115
:101800000E946F0B182FBE01812F0E94C013DF9121
:10181000CF911F910895EF92FF920F931F93CF9353
:10182000DF938C01892B09F46CC0F12CEE24E39436
:10183000E8012196F8018491843740F4843008F05F
:1018400051C0813081F0823019F15BC0853709F4D5
:1018500044C0A8F19CE7980F903708F052C08F77EA
:101860000E94C70641C00E5F1F4FFE01849190E2A7
:10187000980F983050F48770FE2D01C0FF0F8A95A5
:10188000EAF78F2F0E94E10F14C00E9425062DC099
:101890000E5F1F4FFE01849190E2980F983060F424
:1018A0008770FE2D01C0FF0F8A95EAF78F2F0E94E7
:1018B000E70F0E94101019C00E94C70616C00E5FE5
:1018C0001F4FFE01C491CC2381F08FE99FE0019767
:1018D000F1F700C00000C150F6CF0E5F1F4FFE01B0
:1018E000F49003C00E9425068E018F2D882309F4F1
:1018F0009FCFEFE9FFE03197F1F700C00000815082
:10190000F5CFDF91CF911F910F91FF90EF90089548
:101910001F93CF93DF93C0912D0316E080912E0388
:10192000C81799F0D0E01C9FF0011D9FF00D112405
:10193000E15DFC4F40815181628173818481958199
:101940000E94240A2196C770E9CFDF91CF911F91A1
:10195000089540915F03509160036091610370911D
:10196000620380916303909164030C94240AEF92C4
:10197000FF920F931F93CF93DF938091640382951F
:101980008F7009F065C080916103882309F460C0FD
:1019900080912D03F0902E0310915F03009160035E
:1019A000609162037091630391E01F3F09F090E042
:1019B000C0913602D0913702292F96E0E92E8F157B
:1019C00009F446C06115710521F00F3F21F030E0A8
:1019D00003C031E001C0322F90E030FD36C0E89EF8
:1019E000F001E99EF00D1124DF01A15DBC4F1196BD
:1019F0003C911197301329C03C91311326C01296A7
:101A00003C911297311121C013964D915C9114971E
:101A1000461B570B4C175D07C0F4809164038F7011
:101A2000806180936403EC5CFC4F80818F708061E7
:101A300080838FE593E00E949B09DF91CF911F91F6
:101A40000F91FF90EF900C94880C01968770B7CFA0
:101A5000DF91CF911F910F91FF90EF9008959F928A
:101A6000AF92BF92CF92DF92EF92FF920F931F93AC
:101A7000CF93DF93CDB7DEB761970FB6F894DEBF93
:101A80000FBECDBF8C0185E0F801DE011D960190EF
:101A90000D928A95E1F7D8011296EC9090915F0330
:101AA000E0916003209162033091630321153105B9
:101AB00031F0EF3F31F481E09F3F19F403C081E042
:101AC00001C080E0B82FB1709B2E80FD47C1D801C6
:101AD0004C9111965C9111971396AD90BC90149710
:101AE0008FE5C82E83E0D82EF0906103B501621B0C
:101AF000730B2091360230913702FF2009F4D9C0D0
:101B0000809164036217730708F095C0282F207F27
:101B100009F052C05E1313C0491311C0FE2CE1102E
:101B20000EC08F708061809364030E94A90CC6016F
:101B30000E949B0980916403F80185834DC1AB2805
:101B400031F05F3F31F481E04F3F19F403C081E091
:101B500001C080E080FD03C081E08E2502C080E0EE
:101B600090E0F82FF170FF2E80FF1CC080912D03B4
:101B700020912E0336E0821709F40BC190E0389FC4
:101B8000F001399FF00D1124E15DFC4F6181561386
:101B900006C06081461303C06281E61203C001964D
:101BA0008770E9CFFE2CEE2009F416C18091640302
:101BB00081608093640354C05E1306C0491304C05F
:101BC000E11002C0F80199C0C8010E940D0A8823E3
:101BD00061F1EE2051F120916403822F82958F7084
:101BE00090E0029774F080915F0390916003988772
:101BF0008F831986BB86AA862C87CE0107960E9402
:101C00009B0986E0F801AFE5B3E001900D928A955B
:101C1000E1F70E94B70C0E94A90C0AC05E1711F1EF
:101C2000C8010E940D0A81112CC0C8010E949B09A5
:101C3000FF24F394D1C0282F207F81F77A2DB98A11
:101C4000A88A6E2D89890E94150A8FE593E00E946B
:101C50009B0986E0D6011D928A95E9F70E94A90C9E
:101C6000F12CBAC04913DCCFE110DACFF80185833B
:101C7000C8010E949B0986E0D6011D928A95E9F76A
:101C8000ABC0EE2091F220916403822F82958F7079
:101C900090E002970CF4B5CF80915F0390916003C0
:101CA0009A8389831B82BD82AC822E83CE010196EA
:101CB000A6CF6217730708F044C0FE2CEE2009F48B
:101CC000B4CF5E1330C049132EC02091640320FDB1
:101CD00021C0822F82958F70482F50E04115510509
:101CE000C9F0F80125834F30510541F08F5F982FDF
:101CF0009295907F822F8F70892B8583C8010E94D7
:101D00009B0986E0F801AFE5B3E001900D928A955A
:101D1000E1F73CC086E0F801AFE5B3E001900D9239
:101D20008A95E1F759C0C8010E940D0A811169CF57
:101D300080916403816080936403C8010E949B09C1
:101D40004BC07A2DB98AA88A6E2D89890E94150AFE
:101D500086E0D6011D928A95E9F718C0EE2009F4B5
:101D600064CFC8010E940D0AF82E882309F45DCFC4
:101D700086E0F801AFE5B3E001900D928A95E1F7B6
:101D80008FE593E00E941F060E94B70C0E94A90CE9
:101D900023C04D875E878D859E850E94DD0B292F90
:101DA00022952F70223028F49F7039F0811105C0E0
:101DB0000BC0243028F49F7049F4805E883020F0F6
:101DC000C8010E949B099F2CF92C06C0D8011596CA
:101DD0009C91907F91F7F8CF8F2D61960FB6F89474
:101DE000DEBF0FBECDBFDF91CF911F910F91FF904E
:101DF000EF90DF90CF90BF90AF909F9008951F938A
:101E0000CF93DF93CDB7DEB72C970FB6F894DEBF34
:101E10000FBECDBF4F83588769877A878B879C8792
:101E2000CE0107960E942F0D8823D1F09F818885CF
:101E30002A853B85232B31F08F3F31F481E09F3F92
:101E400019F403C081E001C080E080FD47C04F81EC
:101E5000588569857A858B859C850E94240A3EC0B9
:101E600086E0FE013796DE01119601900D928A956B
:101E7000E1F7FF81E8856A857B856115710531F0A1
:101E8000EF3F31F481E0FF3F19F403C081E001C06E
:101E900080E080FD23C020912E0330E0C90101962F
:101EA0008770992740912D0350E084179507F1F131
:101EB000F983EA837D836C8396E0929FD001939FA0
:101EC000B00D1124A15DBC4FFE01319601900D9221
:101ED0009A95E1F780932E030E94880C16E080917A
:101EE0002D0390912E03891771F1189FC0011124C1
:101EF000815D9C4F0E942F0D882329F1E0912D03D5
:101F00001E9FF0011124E15DFC4F408151816281EF
:101F10007381848195810E94240A80912D0390E031
:101F200001968770992780932D03D9CF0E94E509E8
:101F300010922E0310922D03EFE5F3E086E0DF010F
:101F40001D928A95E9F72C960FB6F894DEBF0FBE66
:101F5000CDBFDF91CF911F91089580916503859545
:101F60008595859508958091650387700895909172
:101F70006503977081E009F480E008958091710312
:101F8000089590917103892B809371030895809532
:101F900090917103892380937103089510927103C6
:101FA000089590917003892B809370030895809514
:101FB00090917003892380937003089510927003A9
:101FC000089590916F03892B80936F0308958095F6
:101FD00090916F03892380936F03089510926F038C
:101FE000089580916603089508950C94F40F0C945D
:101FF000F50F9091FF0392FD08C09091660398172A
:1020000021F0809366030C94F70F08958091660386
:10201000882329F01092660380E00C94F70F08954E
:10202000E0913802F0913902809171038083E09150
:102030003802F0913902908180917003892B80835E
:10204000E0913802F0913902908180916F03892BE1
:10205000808380916603882381F0E0913802F091BB
:1020600039029081892B80838091380290913902C6
:102070000E94BA2881110E94061080913802909126
:1020800039020C9445280C94F40F9091FF0392FDB3
:1020900010C098E0899F90011124262B209365039E
:1020A0000E94A60A809165038595859585950C9477
:1020B00043100C94A60A1092650380E00C94431020
:1020C000209165038095822380936503982F9770F4
:1020D00099F430E0482F082E000C550B24173507D3
:1020E00059F09091FF0392FD07C0859585958595E0
:1020F0000E94C70A0C945B100895CF939091FF0340
:1021000092FB222720F92817F9F0C82F892FC0FB4E
:1021100082F98093FF038091FE039091FF030E9458
:10212000DF1082E00E9460108091850380FF0CC068
:102130001F92CF938BE492E09F938F930E948B0426
:102140000F900F900F900F90CF9108958091FF0303
:1021500082FB882780F991E089270C947D1081E02B
:102160000C947D1080E00C947D106FEF7FEF80E089
:1021700090E00C94A43280E090E00E94703221E064
:10218000893E9E4F09F020E0822F089582E090E082
:102190000C94683283E090E00C946832CF9384E032
:1021A00090E00E946832C82F82E290E00E9468327C
:1021B0002C2F30E0A901582BCA01CF910895CF935D
:1021C000C92F682F84E090E00E9486326C2F82E253
:1021D00090E0CF910C948632AB01BC018FE090E08F
:1021E0000C949832AB01BC0183E190E00C949832DE
:1021F00060E070E0CB010C94F21060E070E0CB0185
:102200000E94EC100C94F81069EE7EEF80E090E0F4
:102210000E94A43260E082E090E00E94863260E09A
:1022200083E090E00E9486321092290310922A03E4
:1022300010922B0310922C0360E084E090E00E9447
:10224000863260E082E290E00E94863260E085E0C3
:1022500090E00E94863260E086E090E00E94863244
:102260006FEF87E090E00E94863240E050E0BA01D4
:1022700088E090E00E94983260E08DE090E00E945B
:10228000863240E050E0BA0188E190E00E94983246
:1022900060E087E190E00E94863240E050E0BA01C1
:1022A0008CE190E00E94983260E070E080E290E083
:1022B0000E94A43240E050E0BA0188E190E00E9420
:1022C00098320C94FD100C940411682F8EE090E06D
:1022D0000C9486320E94A729609381037093820335
:1022E000809383039093840360937D0370937E03B4
:1022F00080937F0390938003089585B7806885BF9E
:1023000085B7806885BF089581E008950C94841195
:1023100008950C9488110C9488110C948B110C94D2
:1023200088110E947D118DED9BE20E942F280E9452
:102330008F110C9494040E9489110C9488110E94AE
:1023400092290E94DF150C948D11CF93C82F809194
:10235000850382FF1EC080FF04C087E692E00E94D2
:10236000F2038091850380FF0CC01F92CF9382E619
:1023700092E09F938F930E948B040F900F900F9089
:102380000F908091850380FF04C080E692E00E9458
:10239000F2038C2FCF910C94CC056F927F928F9289
:1023A0009F92AF92BF92CF92DF92EF92FF920F93E4
:1023B0001F93CF93DF93CDB7DEB72A970FB6F8946C
:1023C000DEBF0FBECDBF0E94F41581110E946A11BD
:1023D00033E7832E33E0932E00E010E0E02E802FD1
:1023E0000E94D8145C01F401619071904F0168263D
:1023F000792661147104B1F40F5F1F4F0530110588
:1024000069F78FEF89838A831B820E949B298160F1
:10241000782F9D838C8349815A816B818D810E94A5
:10242000D50543C08091850381FD0E94E114F12C04
:10243000CC24C394D12CC3018C219D21892B71F113
:102440000E948611AC20BD208823A1F0FE82EF827D
:1024500081E0A114B10409F480E088870E949B29DF
:102460008160782F9A8789874E815F8168858A8508
:102470000E94D505000F111FF801ED58FC4F808117
:102480009181C826D926D182C08241E0AB2809F4C7
:1024900040E06F2D8E2D0E94F71F07C0F394CC0CE7
:1024A000DD1CFFE0FF12C7CFA7CF0E94FB220E94D6
:1024B0003928909172038917D1F00E9439288093AE
:1024C00072032A960FB6F894DEBF0FBECDBFDF9120
:1024D000CF911F910F91FF90EF90DF90CF90BF9021
:1024E000AF909F908F907F906F900C94A5112A963B
:1024F0000FB6F894DEBF0FBECDBFDF91CF911F9115
:102500000F91FF90EF90DF90CF90BF90AF909F9092
:102510008F907F906F90089580E090E008950895E7
:102520002BE4829FC0011124FC012FE0729FE00D7B
:10253000F11D1124E60FF11DEE0FFF1FE450FF4FB8
:10254000859194910895880F991FFC01E658FD4FDD
:10255000859194910895CF93DF930E94C513EC0168
:10256000811520E5920708F041C0811540E49407E9
:1025700008F0CBC0803E910520F5803C910508F025
:10258000B8C0883A910570F4853A910508F0A8C062
:102590008130910509F4A1C008F4EBC0049708F05C
:1025A000EBC0E7C08F3B910508F0E3C0885AC82F05
:1025B000D0E0CC0FDD1FCD57DD4F88819981946429
:1025C000DCC0811550E2950750F4C11581E0D807B1
:1025D00008F0D2C0C83ED10508F4CEC0CAC08115EB
:1025E00020E3920708F08AC09F7085C0811545E5F9
:1025F000940708F046C0811554E5950708F09DC082
:10260000C11582E5D80718F5C11521E5D20708F0F4
:102610007FC0CE01F4E096958795FA95E1F7282FD3
:1026200023703C2F337081E090E002C0880F991F27
:102630003A95E2F79C68922B2C2F2F7026952695C1
:1026400040E2249F90011124822B932B96C09E017F
:10265000237033279C2F96959695C115D34508F086
:102660005CC041E050E002C0440F551F2A95E2F7DC
:1026700080E2989F90011124CA01822B932B9C68C1
:102680007CC0811559E5950798F4C11588E5D807F0
:1026900008F058C0C11526E5D20708F06AC08C2F93
:1026A0000E9459148F7190E0982F8827906265C01E
:1026B00081154AE5940708F44AC090568115904266
:1026C00008F057C08D2F8F710E9459149E01332737
:1026D00030628F71A901582B4AC081E090E04DC053
:1026E000855AC82FD0E0CF54DD4F888190E09064A8
:1026F00044C0805C91090E94A3123FC09927D3FF78
:1027000002C0986C3AC0906C38C09F70906A35C017
:102710009C2F8827816F906A30C041E050E002C052
:10272000440F551F2A95E2F780E2989F90011124EB
:10273000CA01822B932B9A6820C0982F8827846F18
:10274000906A1BC09C2F8827806F906A16C08F707C
:102750000E9459149E0194E0369527959A95E1F7C9
:102760002F7030E0322F22273069A901482BCA018F
:1027700004C080E090E001C0CE01DF91CF910895C8
:102780000E9490120E94AB1208958238910569F15F
:10279000B0F48133910509F46DC048F48932910594
:1027A00009F463C08A32910509F469C0089585333C
:1027B000910509F455C089339105B9F00895833E18
:1027C000910569F138F4803E9105B1F0823E9105A2
:1027D00009F10895863E9105A9F1873E9105B9F169
:1027E000843E910509F064C023C02091FE0320FDC2
:1027F0004FC021FD4DC008958091FE0380FD44C06F
:102800008091FF0380FF44C08091FE0384FD42C09D
:1028100083EE4DC08091FE0382FF38C0F5CF8091DA
:10282000FE0382FD33C08091FF0380FD31C0ECCFF9
:102830008091FF0381FF32C08091FE0384FD2AC096
:1028400087EE35C08091FE0383FF26C0F5CF8091CF
:10285000FE0383FD21C08091FF0381FD1FC0ECCFEB
:102860008091FE0385FD1CC01DC08091FE0385FD87
:1028700019C016C08091FE0386FD16C017C0809156
:10288000FE0386FD13C010C089E311C082EE0FC0A5
:1028900080EE0DC080E00BC086EE09C084EE07C05C
:1028A00089E205C085E303C08AE201C081E390E0CC
:1028B00008959091FE0392FF0DC0282F28712830B3
:1028C00019F4877F846006C0282F2471243011F406
:1028D0008B7F886093FF0DC0282F2871283119F451
:1028E000877E846106C0282F2471243111F48B7EE9
:1028F00088612091FF0320FF0DC0382F38713830D8
:1029000019F4877F816006C0382F3171313011F49E
:102910008E7F886021FF0DC0282F2871283119F47F
:10292000877E816106C0282F2171213111F48E7EAE
:10293000886194FD877E08950C94B5100E94F4156B
:102940008FE39CE90197F1F700C000000E94F415A5
:1029500080E00E94D81480FF04C00E949C140C9454
:10296000042A08950C949E140E94BB10811102C089
:102970000E9463110E94C610809385030E94CE10AE
:102980009093FF038093FE030E94B2140E94CA102A
:10299000682F70E080E090E00E94460A6091250375
:1029A0007091260380912703909128030C947E0A4E
:1029B000E82FF0E0EE0FFF1FE65FFB4F8081918173
:1029C0000895CF92DF92EF92FF920F931F93CF93D0
:1029D000DF938AE892E00E94F2038AE0E82E84E026
:1029E000F82EC0E0D0E095E8C92E92E0D92E0CE791
:1029F00012E0DF93CF93DF92CF920E948B0482E8A4
:102A000092E00E94F203F701819191917F010E946F
:102A1000B3059F938F931F930F930E948B048AE7B4
:102A200092E00E94F20321968DB79EB708960FB6EA
:102A3000F8949EBF0FBE8DBFC530D105D1F6DF9192
:102A4000CF911F910F91FF90EF90DF90CF9008955D
:102A500080EA8A95F1F7089500C008950C9428152E
:102A600008950C9430150C9431150C9430150C9479
:102A70003515F894E82FE295EF70F0E031A1282F9A
:102A80002F7081E090E001C0880F2A95EAF7982F17
:102A90009095932391A392A1892B82A37894089572
:102AA0000F931F93CF93DF93C3ECD2E089918F3FB5
:102AB00011F00E94391582E0C83CD807B9F7C4EB81
:102AC000D2E003EC12E089918F3F11F00E9439159A
:102AD0000C171D07C1F7DF91CF911F910F9108953A
:102AE000BF92CF92DF92EF92FF920F931F93CF93FB
:102AF000DF938C01C62FD0E0CE018D539D4F6C012A
:102B0000FC0190819F3F09F450C0B62EF894E92F44
:102B1000E295EF70F0E081A19F7021E030E001C00C
:102B2000220F9A95EAF7822B81A382A12095282370
:102B300022A378940E942C15E4EBF2E043EC52E0DF
:102B400021E030E0E12CF12C61916F3F89F0A62F5C
:102B5000A295AF70B0E090968C9190E06F7002C03B
:102B6000959587956A95E2F780FD02C0C90102C07C
:102B700080E090E0E82AF92A220F331F4E175F0702
:102B800019F7F60180818F3F11F00E94391561E03D
:102B9000E114F10409F460E08B2D0E942E15CC0F96
:102BA000DD1FC00FD11FF982E882DF91CF911F9105
:102BB0000F91FF90EF90DF90CF90BF9008950E940B
:102BC00050158AE0EAE0F4E0DF01982F1D929A9513
:102BD000E9F7E0E0F4E0DF011D928A95E9F785E08E
:102BE0000E943F160C94FC04FF920F931F93CF9307
:102BF000DF93CDB7DEB72A970FB6F894DEBF0FBECE
:102C0000CDBF8E010F5F1F4F8AE0F80111928A95A8
:102C1000E9F7F12C6F2DC8010E947015F394F5E0CF
:102C2000FF12F8CF4AE050E0B80180E094E00E9443
:102C30004B32FF24F394009709F4F12C892B41F0D7
:102C40008AE0F801A0E0B4E001900D928A95E1F7E6
:102C50002F2D45E06AE074E080E094E00E94401689
:102C60000E9404058F2D2A960FB6F894DEBF0FBE82
:102C7000CDBFDF91CF911F910F91FF9008950895DF
:102C8000FF920F931F93CF93DF93F82E092F162FE8
:102C9000D72FC42F222349F081E0809388030E941C
:102CA0009B299093870380938603809188038823D0
:102CB000D9F080918603909187030E94B3290597EC
:102CC00098F0EF2DF02FA12FBD2F80E090E04C2F3A
:102CD00050E08417950734F4219131912D933D9361
:102CE0000196F7CF10928803DF91CF911F910F913A
:102CF000FF9008950E94592C0E949F110C94652CFE
:102D00000E94692C0E94CD110C94872C0E942129CD
:102D10000E94402C0E9491110E947A160E948016F7
:102D20000E949B11FBCFEF92FF920F931F93CF93C3
:102D3000DF938B01682F11110AC0442329F0E82F7B
:102D4000F0E0E553FB4F6491762F862F75C0212F5D
:102D500030E0E82FF0E0442321F0E553FB4FE4910D
:102D6000F0E046E0049FC0011124CFEFD0E0BE01A7
:102D70000E949F314BEA4603C001479F900D1124EA
:102D8000800F911D800F911D982F990F890FAE0113
:102D9000421B530B4E9FD0014F9FB00D5E9FB00D55
:102DA00011249B2F189FA0011124452F55278E0118
:102DB000041B150B0E9FA0010F9F500D1E9F500D61
:102DC00011247E01E81AF108E29E8001E39E100DB5
:102DD000F29E100D1124212F3327C21BD30BCE9F3F
:102DE0009001CF9F300DDE9F300D112462307105B0
:102DF000A9F048F46115710569F061307105C9F4F5
:102E00008B2F752F0DC06430710581F058F066303E
:102E1000710579F47E2F8B2F932F0DC0832F7B2F7D
:102E20009E2F09C08E2F7B2F952F05C08E2F732FBD
:102E300002C07E2F852F692FDF91CF911F910F91B7
:102E4000FF90EF90089541E00E949316089520E0CE
:102E500030E0869F212D969F200D311D1124C90140
:102E60000895BC018230910508F40895613E8EE119
:102E7000780748F49B0195E0369527959A95E1F7F8
:102E800048E0420F01C04FEF91E0242F30E0290FBE
:102E9000311D35952795229FF001239FF00DF00DF0
:102EA00011246E177F0718F44FEF420F04C02F3F15
:102EB00039F091E0920F491740F78FEF890F08958D
:102EC0008FEF0895409140025091410225E038E093
:102ED000429FC001439F900D529F900D1124875E29
:102EE000994C9093410280934002890F0895482F96
:102EF000982F46FD9095E92FEF739F7046FD9F5FD9
:102F0000E295EF70EE0FF0E0EF52FD4F2181299F27
:102F1000802D212D112482958F702295207F822B68
:102F20003081982F930F892F47FD81958058089500
:102F3000E42FF0E0EE0FFF1FE15BFE4F408134EE27
:102F4000439F412D1124E72FF0E050E0445E5F4F96
:102F5000DA01A21BB1099D01B7FF03C0319521958C
:102F6000310993E0220F331F9A95E1F7AF01421B1D
:102F7000530B9A0157FF02C020E030E0279F212D1C
:102F80001124722F0895E42FF0E0EE0FFF1FE15B94
:102F9000FE4F408134EE439F412D1124E82FF0E095
:102FA00050E0445E5F4FDA01A21BB1099D01B7FFFB
:102FB00003C031952195310993E0220F331F9A9573
:102FC000E1F7AF01421B530B9A0157FF02C020E00B
:102FD00030E0582F259F212D1124822F0895E42FB2
:102FE000F0E0EE0FFF1FE05BFE4F6081621B089573
:102FF000A22F50E0FA01EE0FFF1FE05BFE4F908121
:10300000905297FD9195440F551FFA01E15BFE4FD9
:103010003081232F30E02A1B3109290F311D97FD04
:103020003A95620F0895EF920F931F9393E0099FD3
:1030300080011124159507956E2D600F1F910F913A
:10304000EF9008950F93CF93DF93D72FC82F47FDAD
:103050004195E8E3F0E0CF01841B910947FD93958A
:10306000889FB001899F700D700D1124229FC001AF
:10307000239F900D900D1124860F971F0E943117EA
:10308000682F660F860F682F600F7D2F8C2FDF91C2
:10309000CF910F9108950F931F93522F10E0F801D5
:1030A000EE0FFF1FE05BFE4FE081F0E0B0979F0165
:1030B0005203D001539FB00D1124000F111FF801CE
:1030C000E15BFE4F008110E00057110940039001C1
:1030D000419F300D11242A0F3B1F37FF02C021589A
:1030E0003F4F220F232F221F330B620F1F910F918F
:1030F00008950F931F93522F10E0F801EE0FFF1F5A
:10310000E05BFE4FE081F0E0B097EE0FFF1F9F0104
:103110005203D001539FB00D1124000F111FF8016D
:10312000E15BFE4F008110E000571109000F111FF5
:1031300040039001419F300D11242A0F3B1F37FFA0
:1031400002C021583F4F220F232F221F330B620F43
:103150001F910F9108950F931F9310E0F801EE0F48
:10316000FF1FE15BFE4F9081905797FD9195000FF7
:10317000111FF801E05BFE4FE081F0E0B097DF0146
:10318000AA0FBB1F8D010E0F1F1F2003D001219F0F
:10319000B00D1124E8E3F0E0E91BF10997FDF39588
:1031A0009F01220F331F89010E0F1F1F4003900143
:1031B000419F300D11242A0F3B1F37FF02C02158B9
:1031C0003F4F220F232F221F330B620F1F910F91AE
:1031D00008950F931F93CF93DF93D62F072F182FA8
:1031E000C42F822F0E947717EC2FF0E0EE0FFF1F05
:1031F000E15BFE4F90819058890F87FD8195880F84
:10320000682F2CE0629F612D11246D0F702F812F8C
:10321000DF91CF911F910F910895E42FF0E0EE0F11
:10322000FF1FE15BFE4F9081921B97FD9195292F27
:1032300038E1239F212D1124620F0895E42FF0E03F
:10324000EE0FFF1FE15BFE4F6081621B0895622F4E
:103250000895FC019B01009721F477FF2BC080E8C3
:103260000895AC0197FF04C044275527481B590B0C
:10327000B901640F751F37FD0CC0241B350BC90144
:10328000A5E0880F991FAA95E1F70E94B33180E26B
:103290000CC0CB0165E0880F991F6A95E1F7BA0170
:1032A000621B730B0E94B33180E6861BF7FF03C0DD
:1032B0008195089580E00895FF920F931F93CF9317
:1032C000DF93F62E172FD82FC901C72FC01BBA01C5
:1032D0000E942919982F990F890F7C2F781B719FB5
:1032E000712D11246F2D8D2FDF91CF911F910F9193
:1032F000FF900895FF920F931F93CF93DF93F62EC5
:10330000D72F182FC901C12FC01BBA010E9429193C
:10331000982F990F890FC81B2C2F219F212D112425
:10332000822F6F2D7D2FDF91CF911F910F91FF90F5
:103330000895EF920F931F93CF93DF93D62F172FFC
:10334000C82FC9010E19070FBA010E942919702F41
:10335000781B719F712D11246D2F8C2FDF91CF91D0
:103360001F910F91EF900895EF920F931F93CF93BA
:10337000DF93D62FC72F182FC9010E19010FBA01DD
:103380000E942919081B202F219F212D1124822FF3
:103390006D2F7C2FDF91CF911F910F91EF900895AA
:1033A0000F93CF93DF93D72FC82FC901BA010E9483
:1033B0002919682F600F7D2F8C2FDF91CF910F91EE
:1033C0000895EF920F93CF93DF93D72FC82FC901A2
:1033D0000E19BA010E942919602F681B7D2F8C2FAE
:1033E000DF91CF910F91EF900895622F0895E42F10
:1033F000F0E0EE0FFF1FE15BFE4F6081621B08955E
:103400000E94231708958091850380FF08C087EAF2
:1034100094E09F938F930E948B040F900F9085E30D
:103420008093140480914F0290915002A091510218
:103430008093150490931604A09317048FE780934C
:1034400018048FEF8093190446E050E06CE170E0BF
:1034500084E194E00E9476321092DC03089580911A
:10346000850380FF08C08DE894E09F938F930E94AE
:103470008B040F900F908091850380FF0FC0809187
:10348000140483701F928F938EE694E09F938F9322
:103490000E948B040F900F900F900F9080918503E6
:1034A00080FF10C080911404869586951F928F939B
:1034B00081E594E09F938F930E948B040F900F906F
:1034C0000F900F908091850380FF0EC080911504AE
:1034D0001F928F9383E394E09F938F930E948B04BA
:1034E0000F900F900F900F908091850380FF0EC07A
:1034F000809116041F928F9385E194E09F938F93A0
:103500000E948B040F900F900F900F908091850375
:1035100080FF0EC0809117041F928F9387EF93E076
:103520009F938F930E948B040F900F900F900F909A
:103530008091850380FF0EC0809118041F928F93A5
:1035400089ED93E09F938F930E948B040F900F90CF
:103550000F900F908091850380FF0EC08091190419
:103560001F928F938BEB93E09F938F930E948B041A
:103570000F900F900F900F900895E091DF02F0915F
:10358000E0020994E091DB02F091DC0209944F9291
:103590005F926F927F928F929F92AF92BF92CF92E3
:1035A000DF92EF920F931F93CF93DF932C013B0198
:1035B000FC01C081C295C07FD0E1DC0FDE3408F091
:1035C000DDE460911804669580911A0490911B04C3
:1035D0000E942717182FCD1708F044C08C2E912C6D
:1035E000F401E751FE4F9081F20181818923C1F1FD
:1035F000F401EE0FFF1FE15BFE4FC080D12CF0E71E
:10360000CF1AD108F401EE0FFF1FE05BFE4FA08040
:10361000B12C80E2A81AB108CC9C9001CD9C300D51
:10362000300D1124AA9CC001AB9C900D900D11246B
:10363000820F931F0E943117082F6091150470911B
:10364000160480911704E12E9501A601F301099556
:103650000E94001A462F282F672FC4010E94C21A09
:10366000CF5FB9CF81E0DD3408F080E0DF91CF910A
:103670001F910F91EF90DF90CF90BF90AF909F90F0
:103680008F907F906F905F904F90089569E979E1F6
:103690000C94C71A64EB79E10C94C71A63E178E1E2
:1036A0000C94C71A61EE79E10C94C71AAF92BF92DD
:1036B000CF92DF92EF92FF920F931F93CF93DF93FE
:1036C0006C015B01FC01C081C295C07FD0E1DC0FC1
:1036D000DE3408F0DDE460911804669580911A04E8
:1036E00090911B040E942717182FCD1778F5EC2E08
:1036F000F12CF701E751FE4F9081F601818189237A
:1037000019F1F701EE0FFF1FE05BFE4F208130E063
:1037100020523109F701EE0FFF1FE15BFE4F4081A0
:1037200050E0405751096091150470911604809142
:103730001704012FF50109950E94001A462F282F22
:10374000672FC7010E94C21ACF5FCFCF81E0DD345F
:1037500008F080E0DF91CF911F910F91FF90EF90E3
:10376000DF90CF90BF90AF9008956CE579E10C9415
:10377000561B6AE779E10C94561B62E278E10C94DF
:10378000561B60ED79E10C94561BBF92CF92DF92ED
:10379000EF92FF920F931F93CF93DF938C017B01E6
:1037A000FC01C081C295C07FD0E1DC0FDE3408F09F
:1037B000DDE4609118046695669521E0620F08F4D7
:1037C0006FEF80911A0490911B040E942717B82E66
:1037D000CD17F0F4CC2ED12CF601E751FE4F90819D
:1037E000F8018181892391F060911504709116048C
:1037F000809117042B2D4C2FF70109950E94001A78
:10380000462F282F672FC6010E94C21ACF5FE0CF34
:1038100081E0DD3408F080E0DF91CF911F910F91BE
:10382000FF90EF90DF90CF90BF90089568E977E127
:103830000C94C51B63EC77E10C94C51B65EF79E133
:103840000C94C51B67EF79E10C94C51B6FEE77E113
:103850000C94C51B68EF77E10C94C51B69EE78E109
:103860000C94C51B6DE079E10C94C51B7F928F927F
:103870009F92AF92BF92CF92DF92EF92FF920F93FF
:103880001F93CF93DF936C015B01FC01C081C29554
:10389000C07FD0E1DC0FDE3408F0DDE46091180475
:1038A0006695669580911A0490911B040E942717D3
:1038B000182F80E4810F0E94771790E8F92EF80EF8
:1038C000812F0E94771720E8722E780ECD1700F511
:1038D0008C2E912CF401E751FE4F9081F6018181ED
:1038E0008923A1F06091150470911604809117044A
:1038F000E12E0C2F272D4F2DF50109950E94001A5E
:10390000462F282F672FC4010E94C21ACF5FDECF37
:1039100081E0DD3408F080E0DF91CF911F910F91BD
:10392000FF90EF90DF90CF90BF90AF909F908F90DF
:103930007F9008956BE478E10C94361C69E778E198
:103940000C94361C6BEA78E10C94361CDF92EF92F3
:10395000FF920F931F93CF93DF938C01DC01CC91E7
:10396000C295C07FD0E1DC0FDE3408F0DDE4609169
:10397000150470911604809117040E94001AF62E07
:10398000E72ED82ECD1798F4EC2FF0E0DF01A751E9
:10399000BE4F8C91D80111969C91982331F02D2D1A
:1039A0004F2D6E2DCF010E94C21ACF5FEBCF81E069
:1039B000DD3408F080E0DF91CF911F910F91FF90EF
:1039C000EF90DF900895AF92BF92CF92DF92EF9287
:1039D000FF920F931F93CF93DF938C01FC01C08163
:1039E000C295C07FD0E1DC0FDE3408F0DDE4E0906A
:1039F0001604F0901704D09015046D2D7E2D8F2D98
:103A00000E94001AC62EB72EA82E609118046D0DC4
:103A10007E2D8F2D0E94001AF62EE72ED82ECD1760
:103A2000B8F48C2F90E0FC01E751FE4F3081F80193
:103A30002181232359F030FF04C02D2D4F2D6E2DF1
:103A400003C02A2D4C2D6B2D0E94C21ACF5FE7CFE9
:103A500081E0DD3408F080E0DF91CF911F910F917C
:103A6000FF90EF90DF90CF90BF90AF900895BF92FE
:103A7000CF92DF92EF92FF920F931F93CF93DF933A
:103A80006C01FC01C081C295C07FD0E1DC0FDE3447
:103A900008F0DDE400911604B0901704209118049A
:103AA00010E4129F112D1124CD1718F5EC2EF12CD6
:103AB000F701E751FE4F9081F60181818923B9F02A
:103AC000F701EE0FFF1FE05BFE4F808182958F7044
:103AD00060911504819F600D1124702F8B2D0E9421
:103AE000001A462F282F672FC7010E94C21ACF5FE6
:103AF000DBCF81E0DD3408F080E0DF91CF911F91D2
:103B00000F91FF90EF90DF90CF90BF900895BF92FC
:103B1000CF92DF92EF92FF920F931F93CF93DF9399
:103B20007C01FC01C081C295C07FD0E1DC0FDE3496
:103B300008F0DDE4C0901604B0901704209118043A
:103B400030E4D32E3D2D329F312D1124D32ECD17AD
:103B500038F50C2F10E0F801E751FE4F9081F70186
:103B600081818923D9F0F801EE0FFF1FE15BFE4F41
:103B70006081D69EB001112495E0759567959A9560
:103B8000E1F780911504680F7C2D8B2D0E94001A9F
:103B9000462F282F672FC8010E94C21ACF5FD7CFA8
:103BA00081E0DD3408F080E0DF91CF911F910F912B
:103BB000FF90EF90DF90CF90BF900895DF92EF924B
:103BC000FF920F931F93CF93DF938C01DC01CC9175
:103BD000C295C07FD0E1DC0FDE3408F0DDE4E09078
:103BE0001504F0901604D09017046091180466959F
:103BF0006695669580911A0490911B040E94271780
:103C00000E947717805887FD8195880F282F3D2DBA
:103C1000239F212D1124822FB7010E94001AF62E16
:103C2000E72ED82ECD1798F4EC2FF0E0DF01A75146
:103C3000BE4F8C91D80111969C91982331F02D2D77
:103C40004F2D6E2DCF010E94C21ACF5FEBCF81E0C6
:103C5000DD3408F080E0DF91CF911F910F91FF904C
:103C6000EF90DF900895DF92EF92FF920F931F93F2
:103C7000CF93DF93EC01FC01E751FE4F9081692364
:103C800081F1D09016040091170410911504E12ED3
:103C9000F12C0E943B32282FC7018C549F4F68E6BD
:103CA00071E00E94B3318E199F0997FD0396959597
:103CB0008795959587952370612F289F600D112416
:103CC0007D2D802F0E94001A462F282F672FCE01AE
:103CD000DF91CF911F910F91FF90EF90DF900C94A7
:103CE000C21ADF91CF911F910F91FF90EF90DF905B
:103CF0000895CF92DF92FF920F931F93CF93DF939C
:103D00008C01FC01C281C1111DC06091180420E129
:103D1000620F08F46FEF80911A0490911B040E94C7
:103D200027176AE070E00E949F31892B49F50E94B5
:103D30003B326DE470E00E94B331F80161810E9472
:103D4000331E1EC0FC01C081C295C07F90E1F92ED8
:103D5000FC0EFDE4FF1510F48DE4F82ED0E0CF2C1E
:103D6000D12CCC15DD053CF4F8016181CE010E9417
:103D7000331E2196F6CFC1E0FCE4FF1508F4C0E045
:103D80008C2FDF91CF911F910F91FF90DF90CF90FB
:103D900008951F93CF93DF93FC01E751FE4F2081DD
:103DA0006223D1F0EC010E943B32182F0E943B327B
:103DB0008F77782F20E8720F08F47FEF612F8091C2
:103DC00017040E94001A462F282F672FCE01DF917B
:103DD000CF911F910C94C21ADF91CF911F9108953A
:103DE000CF92DF92FF920F931F93CF93DF938C01BB
:103DF000FC01C281C1111DC06091180420E1620F55
:103E000008F46FEF80911A0490911B040E94271709
:103E100065E070E00E949F31892B49F50E943B329A
:103E20006DE470E00E94B331F80161810E94C91E07
:103E30001EC0FC01C081C295C07F90E1F92EFC0E2E
:103E4000FDE4FF1510F48DE4F82ED0E0CF2CD12C3A
:103E5000CC15DD053CF4F8016181CE010E94C91E3C
:103E60002196F6CFC1E0FCE4FF1508F4C0E08C2FEA
:103E7000DF91CF911F910F91FF90DF90CF90089528
:103E8000DF92EF92FF920F931F93CF93DF938C01FA
:103E9000DC01CC91C295C07FD0E1DC0FDE3408F0AC
:103EA000DDE4E0901604F0901704D09015046091C2
:103EB000180466956695669580911A0490911B0486
:103EC0000E9427170E947717805887FD8195880FD9
:103ED000682F2CE0629F612D11246D0D7E2D8F2D9A
:103EE0000E942317F62EE72ED82ECD1798F4EC2F2C
:103EF000F0E0DF01A751BE4F8C91D80111969C9143
:103F0000982331F02D2D4F2D6E2DCF010E94C21A16
:103F1000CF5FEBCF81E0DD3408F080E0DF91CF911F
:103F20001F910F91FF90EF90DF900895BF92CF9275
:103F3000DF92EF92FF920F931F93CF93DF936C0169
:103F40007B01FC01C081C295C07FD0E1DC0FDE3473
:103F500008F0DDE46091180462956F7080911A0496
:103F600090911B040E942717B82ECD1728F50C2F0F
:103F700010E0CA3420F420E040E060E018C0F8010E
:103F8000E751FE4F9081F6018181892399F060917C
:103F9000150470911604809117042B2D46EB4C0FDD
:103FA000F70109950E942317462F282F672FC80174
:103FB0000E94C21ACF5FD9CF81E0DD3408F080E0E3
:103FC000DF91CF911F910F91FF90EF90DF90CF90F5
:103FD000BF9008956EE179E10C94961F67E279E154
:103FE0000C94961FE091DD02F091DE0209940C948E
:103FF000841180911A0490911B04A0911C04B0912B
:104000001D0488279C70AA27BB272AE0B695A79590
:10401000979587952A95D1F782309105A105B1052D
:1040200071F083309105A105B10569F040E0019779
:10403000A105B10511F060E008C064E102C044E1EF
:1040400060E080E003C044E164E184E10C94F21F8D
:104050005F926F927F928F929F92AF92BF92CF9218
:10406000DF92EF92FF920F931F93CF93DF93C82FAE
:1040700080913E028C130DC020911404237030E017
:1040800040913F0250E081E02417350719F480E0A9
:1040900001C081E0817080933D028091190490916C
:1040A0003C02981739F080933C0240E060E080E0E9
:1040B0000E94F21FC03111F58BE392E00E944E1B6B
:1040C00009C0C43008F057C0C13061F58BE392E0FD
:1040D0000E94A61C90913B029F5F90933B0281112E
:1040E0005AC282E080933A0280913D02811153C20C
:1040F000C11151C283E080933A024DC2C13108F030
:104100008BC0C73029F48BE392E00E941A1CE2CFE7
:10411000C83008F043C0C330A1F68BE392E00E94A0
:10412000371DD8CFC23050F480913D02882309F169
:1041300040E060E080E00E94F21F1BC08BE392E051
:104140000E94E31CC7CF4091D8035091D9036091DE
:10415000DA037091DB0380911A0490911B04A09103
:104160001C04B0911D0484179507A607B70708F033
:1041700071C180E0AFCFC53029F48BE392E00E949B
:10418000DE1DA8CFC63028F48BE392E00E94871D85
:10419000A1CF8BE392E00E94161C9CCFCB3029F478
:1041A0008BE392E00E944A1B95CFCC3098F4C93043
:1041B00029F48BE392E00E94B91B8CCFCA3028F41B
:1041C0008BE392E00E94B51B85CF8BE392E00E94C7
:1041D000461B80CFCD3029F48BE392E00E94221C55
:1041E00079CFCD3028F48BE392E00E941E1C72CF71
:1041F000CE3029F48BE392E00E94261C6BCFCF30A7
:1042000029F48BE392E00E942A1C64CF80913B0248
:104210008F5F80933B0265CFC93129F48BE392E035
:104220000E94401F57CFCA31C8F5C43129F48BE32F
:1042300092E00E949A1C4ECFC53198F4C23129F405
:104240008BE392E00E94C11B45CFC33128F48BE37E
:1042500092E00E94BD1B3ECF8BE392E00E94521B76
:1042600039CFC63129F48BE392E00E94A21C32CFF1
:10427000C63128F48BE392E00E949E1C2BCFC731FD
:1042800029F48BE392E00E94791E24CFC83109F013
:10429000BDCF8BE392E00E94F01E1CCFCD3109F020
:1042A000C7C04091D4035091D5036091D60370915B
:1042B000D70380911A0490911B04A0911C04B09123
:1042C0001D0484179507A607B70708F452CF60911D
:1042D000150470911604809117040E94001AD62FBD
:1042E000772E682E29E8E22E23E0F22E04E011E07A
:1042F0003FE4A32E31E0B32E4701C12CD12CF401B1
:104300008081F801EC0DFD1D882329F08081262D88
:104310004D2F672D04C0808120E040E060E090E0F8
:104320000E94C21AF401818181934F01FFEFCF1ADD
:10433000DF0A86E0C816D10411F7480167019EE044
:10434000592EF6018685F401882329F08685262DCD
:104350004D2F672D04C0868520E040E060E090E0AE
:104360000E94C21AF601858586875A94F1E0CF1A19
:10437000D10881E0881A9108E7E05E12E2CFF701E8
:104380008781F801882329F08781262D4D2F672DFD
:1043900004C0878120E040E060E090E00E94C21A03
:1043A000F7018681F801882329F08681262D4D2F7B
:1043B000672D04C0868120E040E060E090E00E942C
:1043C000C21A0E946217837091E009F090E0F70131
:1043D00096839783FFE0EF0EF11C015F1F4FA0163D
:1043E000B10609F089CF2091180430E1230F08F4B9
:1043F0002FEF60E1822F90E00E942717BC0188EB2D
:104400009BE00E949F3180911A0490911B04A0911F
:104410001C04B0911D04860F971FA11DB11D809330
:10442000D4039093D503A093D603B093D703A1CE22
:10443000CE3108F066C0CB3129F48BE392E00E94C4
:10444000321C48CECC3108F07ECE8BE392E00E9445
:104450002E1C40CE0E946217D82F0E9462179DE446
:10446000891BF0F7890F082F10E0F801E751FE4F84
:1044700090913C028081892309F441C0D1FF04C09E
:1044800020E040E060E013C00E946217D82F0E9435
:1044900062178695782F2FE7720F08F47FEF6D2F44
:1044A000809117040E94001A462F282F672FC801F9
:1044B0000E94C21A2091180430E1230F08F42FEF54
:1044C00060E1822F90E00E942717BC0184EF91E009
:1044D0000E949F3180911A0490911B04A0911C04AA
:1044E000B0911D04860F971FA11DB11D8093D803A5
:1044F0009093D903A093DA03B093DB033ACE81E023
:10450000E9CDCF3129F48BE392E00E94EE1FE2CD9A
:10451000CF3128F48BE392E00E94EA1FDBCDC0325A
:1045200099F56091150470911604809117040E940A
:104530002317D62FD72EC82E10913B021295107F2D
:1045400000E1010F0E3408F00DE41A3448F420E0C5
:1045500040E060E0812F90E00E94C21A1F5FF5CF1B
:104560008AE4E82EF12CE01650F42C2D4D2F6D2D01
:10457000C7010E94C21A8FEFE81AF80AF4CF81E04F
:104580000D3408F4A7CDF5CDCF3F09F03FCE0E9402
:10459000F91F82E0B0CDDF91CF911F910F91FF9075
:1045A000EF90DF90CF90BF90AF909F908F907F90D3
:1045B0006F905F90089508950C94DB220E94DC2296
:1045C0000C94DB2208950C94E222CF93DF93FC013C
:1045D000C081C295C07FC051D0E1DC0FDE3408F04D
:1045E000DDE46D2F8C2F0E94E3226D2F8C2FDF9145
:1045F000CF910C94E222CF930E94A7296093DD0310
:104600007093DE038093DF039093E0032091E10336
:10461000211108C0C09114042C2F237019F0C695E5
:10462000C69501C0C0E020913A02213091F028F0F7
:104630002230D9F0233031F144C010923B02609314
:104640001A0470931B0480931C0490931D0481E052
:1046500016C08C2F0E942820CC2399F10E94DE22C4
:104660008BE392E0CF910C94E522C0933E028091BF
:104670001404837080933F020E94BD1A83E08093EC
:104680003A021FC08091DC03882351F046E050E0DD
:104690006CE170E084E194E00E9476321092DC03D9
:1046A00060911A0470911B0480911C0490911D0468
:1046B0000E94C229603171058105910510F01092A8
:1046C0003A02CF910895E091D902F091DA0209956A
:1046D0000E94BB10811110C08091850380FF08C02B
:1046E00089E893E09F938F930E948B040F900F9023
:1046F0000E9463110E94031A46E050E06CE170E0F2
:1047000084E194E00E9458321092DC0380911404FA
:104710008C7F71F48091850380FF08C084E393E06F
:104720009F938F930E948B040F900F900E94031A07
:104730000C942F1ACF93C82F882391F08091E10316
:1047400081110EC00E94282010923E028091140414
:10475000837080933F020E94BD1A83E080933A02E7
:10476000C093E103CF91089590911404392F3370D1
:1047700021E023279C7F922B9093140410923A02FD
:104780009091DC03982B9093DC039091850390FF2C
:1047900017C0811103C088EC92E002C08AEC92E05D
:1047A0001F922F939F938F938DEF92E09F938F9300
:1047B0000E948B040F900F900F900F900F900F900E
:1047C000089581E00C94B42390911404937099F1AE
:1047D000811102C0946007C0813210F0906803C05C
:1047E000880F880F982B9093140410923A028091AE
:1047F000DC03862B8093DC038091850380FF1BC044
:104800002091140426952695611103C088EC92E04E
:1048100002C08AEC92E01F922F939F938F9383EEB6
:1048200092E09F938F930E948B040F900F900F90B4
:104830000F900F900F90089561E00C94E423682F7F
:1048400090911404969596959F5F913210F4892F5C
:1048500001C081E00C94E42381E00C941F24682FB4
:104860009091140496959695915011F0892F01C05E
:1048700080E20C94E42381E00C942F243091140402
:10488000337089F18093150460931604473908F05A
:1048900046E9409317043091DC03322B3093DC035C
:1048A0003091850330FF1FC050E09927211103C0CC
:1048B00028EC32E002C02AEC32E05F934F931F9263
:1048C0006F939F938F933F932F9380EC92E09F93EE
:1048D0008F930E948B048DB79EB70A960FB6F894FB
:1048E0009EBF0FBE8DBF0895A4E1B4E01196EC9178
:1048F0001197F0E0282F13964C91139712966C9114
:10490000CF0108960C943E2481E00C947424A4E119
:10491000B4E01196EC911197F0E0282F13964C918A
:10492000139712966C91CF0108970C943E2481E066
:104930000C948724E4E1F4E0628120E1620F08F442
:104940006FEF9181282F4381892F90E00C943E24B2
:1049500081E00C949A24E4E1F4E0628120E1621B9E
:1049600008F460E09181282F4381892F90E00C9416
:104970003E2481E00C94AB24E4E1F4E0438120E1A7
:10498000420F08F44FEF9181282F6281892F90E028
:104990000C943E2481E00C94BC24E4E1F4E04381D7
:1049A00020E1421B08F440E09181282F6281892F89
:1049B00090E00C943E2481E00C94CD248093180464
:1049C0009091DC03962B9093DC039091850390FFEC
:1049D00017C0611103C028EC32E002C02AEC32E0BB
:1049E0001F928F933F932F9381EA92E09F938F932F
:1049F0000E948B040F900F900F900F900F900F90CC
:104A000008952091180430E1230F08F42FEF682F48
:104A1000822F0C94DE2481E00C940125209118044F
:104A200030E1231B08F420E0682F822F0C94DE2451
:104A300081E00C940E250895FC01EE0FFF1F8E0FF0
:104A40009F1FFC01E25EFB4F618340832283089538
:104A5000EEE1F4E095E0E530F90729F08183608329
:104A600042833396F7CF08956DE470E08EE194E0D1
:104A70000C94DC25882311F0FA0101C0FB01099494
:104A80001F93CF93DF93FB011281112309F48CC094
:104A9000EC010E94BE0F8272CB3CFCE5DF0709F4FB
:104AA0006EC048F5C63CECE5DE0709F454C070F46E
:104AB000C43C9CE5D90709F442C008F045C0C33C9A
:104AC000DC4509F074C00E94E12370C0C83C9CE53D
:104AD000D90709F44AC008F443C0C93CFCE5DF0724
:104AE00009F448C0CA3CDC4509F061C04BED54E212
:104AF0006AEC74E22DC0C03DECE5DE0709F450C05D
:104B000088F4CD3C9CE5D90709F443C0E8F1CE3CDC
:104B1000FCE5DF0709F442C0CF3CDC4509F047C0A3
:104B200085E03FC0C73D9CE5D90728F4C23DDC4580
:104B3000E8F582E136C0CE35DD45C1F138C04BE342
:104B400054E26CE274E204C04CE254E26BE374E2BF
:104B50000E943A252BC047E954E264E874E2F8CF9A
:104B600044E854E267E974E2F3CF49EB54E268EABF
:104B700074E2EECF48EA54E269EB74E2E9CF4AEC22
:104B800054E26BED74E2E4CF48E155E26BE075E28C
:104B9000DFCF4BE055E268E175E2DACF81E001C09A
:104BA0008DE00E941C2402C011E001C010E0812FA2
:104BB000DF91CF911F910895279A25B12F7735B1B5
:104BC00030684FB7F894FC01CB01880F991F680F2C
:104BD000791F6E0F7F1FE617F70789F0819198E024
:104BE00035B9000000C087FF25B9880F000000C05C
:104BF00000C000C025B900C09A9591F7ECCF4FBF17
:104C00008FE594E00197F1F700C000000895CF937D
:104C1000DF93EC01FB018281882309F426C1C430B3
:104C2000FDE5DF0760F4CB3F9CE5D90768F49E0102
:104C300022503C452431310508F018C105C0C23668
:104C4000EDE5DE0709F012C10E94CE109093FF033C
:104C50008093FE03C031FCE5DF0709F4CAC008F009
:104C600041C0C8309CE5D90709F4A4C0F0F4C430B1
:104C7000FCE5DF0709F48CC068F4C2309CE5D90775
:104C800009F482C0C330DC4509F0E5C08091FE0321
:104C90008260DFC0C630FCE5DF0709F483C008F09E
:104CA00085C08091FE038860D4C0CC309CE5D907D4
:104CB00009F490C068F4CA30FCE5DF0709F47EC04F
:104CC00008F084C00E94E5098091FE038068C1C09D
:104CD000CE309CE5D90709F481C008F086C08091E8
:104CE000FE0394C0CD3FFCE5DF0709F47BC038F537
:104CF000C4319CE5D90709F49AC058F4C231FCE5E7
:104D0000DF0709F47AC008F07EC08091FE038F7B34
:104D1000A0C0CB3F9CE5D907F1F108F03FC0C531F9
:104D2000DC4509F098C08091FE0382FB222720F920
:104D300091E0922790FB82F990FB83F98AC0C13001
:104D40008DE5D80709F467C050F48091FF03CF3F89
:104D5000ECE5DE07C1F108F05BC08D7F65C0C330B4
:104D60008DE5D80709F471C008F46DC0C236DD4581
:104D700009F071C08091FE0384FB222720F991E0A5
:104D8000922790FB84F965C08091FE03816061C029
:104D90008091FE0316C08091FF0316C08091FF032F
:104DA000826042C08091FE03806153C08091FE0307
:104DB00080624FC08091FE0380644BC08091FE03EF
:104DC0008860846046C0826081602EC08091FE034E
:104DD0008E7F3FC08091FE038D7F3BC08091FE039C
:104DE000877F37C08091FF0314C08091FE038F7EC0
:104DF00030C08091FE038F7D2CC00E94E509809118
:104E0000FE038F7726C08091FE03877F8B7F21C0B2
:104E10008D7F8E7F09C08091FF03982F90959170B0
:104E20008E7F892B90FB81F98093FF0314C00E9431
:104E3000E5098091FE0387FB222720F991E0922764
:104E400090FB87F906C081E001C080E00E946511F7
:104E500002C08093FE038091FE039091FF030E94A5
:104E6000DF100E94E50980E001C081E0DF91CF9171
:104E70000895CF93DF9386319C4541F5EB010E9465
:104E8000BE0F982F8A8120913802309139028823F1
:104E900079F09A7A81E009F480E08093E20391113D
:104EA00002C069E201C065E3C9010E94FC280AC092
:104EB0008091E203811102C069E201C065E3C9018A
:104EC0000E94FE280E94101080E001C081E0DF9166
:104ED000CF9108950F931F93CF93DF93C42FD22FB9
:104EE000FC0182818823C9F04093E5030E949B293D
:104EF0009093E4038093E30380E28C0F883008F002
:104F000057C0C77081E001C0880FCA95EAF7DF91EA
:104F1000CF911F910F910C9446078091E5034813A0
:104F200030C08091E3039091E4030E94B329883C50
:104F3000910538F510E21D0FCD17B9F080E28C0F06
:104F4000883040F4C77081E001C0880FCA95EAF745
:104F50000E944D07183028F581E09D2F977001C001
:104F6000880F9A95EAF70E944607802F0E943D0716
:104F70001830F0F4D77081E001C0880FDA95EAF7B5
:104F80000AC080E28C0F883098F4C77081E001C0BD
:104F9000880FCA95EAF7DF91CF911F910F910C947A
:104FA0004D07802FDF91CF911F910F910C943D07FA
:104FB000DF91CF911F910F9108950F939C01CB0129
:104FC000243F4CE5340731F188F4293DFCE53F07E7
:104FD000D9F02A3D4CE5340779F1283D3C45A9F547
:104FE00006E221EE41EE68ED7CE52BC0263FFCE5B4
:104FF0003F07E1F0A8F0273F3C4539F507E225EEF1
:1050000046EE67EF7CE51DC007E225EE45EE69ED53
:105010007CE517C006E221EE40EE64EF7CE511C0AE
:1050200007E225EE44EE65EF7CE50BC006E221EEDB
:1050300042EE66EF7CE505C008E221E045EE6AED50
:105040007CE50E946A2780E008C0FC0182818823F9
:1050500019F01092E50301C081E00F91089590933B
:10506000F1028093F00208959093EB038093EA039A
:105070000895E091EA03F091EB03309721F001905D
:10508000F081E02D099480E00895EF92FF920F9354
:105090001F93CF93DF93E091EA03F091EB033097F6
:1050A000B1F18C010280F381E02D09958091850397
:1050B00082FF2DC080FF04C083ED95E00E94F203C3
:1050C000E80118E08DECE82E85E0F82E809185034C
:1050D00080FF0BC088811F928F93FF92EF920E94F6
:1050E0008B040F900F900F900F901150219611117B
:1050F000EDCF8091850380FF0AC08BEC95E0DF91B6
:10510000CF911F910F91FF90EF900C94F203DF91DC
:10511000CF911F910F91FF90EF9008952091E80398
:105120003091E9032817390771F09093E9038093D0
:10513000E803E091EA03F091EB03309721F0068059
:10514000F781E02D099408952091E6033091E7035B
:105150002817390771F09093E7038093E603E091F5
:10516000EA03F091EB03309721F00084F185E02D04
:1051700009940895FC01329697E080E0915029F05F
:1051800021912223D9F38F5FF9CF0895662349F047
:10519000FC01329608962191621729F0E817F90769
:1051A000D1F780E0089581E008959C01FC013296DA
:1051B0009FEF80E04191461789F09F3F19F441111C
:1051C00001C0982F8F5F8630A9F79F3F39F0F90112
:1051D000E90FF11D97FDFA956283089508959C01EA
:1051E0002A5F3F4FFC014281461301C012820196A3
:1051F00082179307B9F708950C94D5280C94EF28DB
:10520000029626E0FC0111922A95E9F70895089587
:105210000C94072983E08093EC030C9408298111F6
:1052200002C081E001C082E08093EC030C94082965
:105230000C940F2981E08093EC030C9408290C94C2
:105240001A29089580910D05843031F10E940605D8
:105250001092ED0320E488E190E00FB6F894A89551
:10526000809360000FBE2093600083B7817F8460CD
:1052700083BF83B7816083BF7894889583B78E7F1F
:1052800083BF0FB6F894A8958091600088618093E1
:105290006000109260000FBE089508950C944D298F
:1052A000CF930E944E290E94F4150E944D29C0E020
:1052B0008C2F0E94D814892B29F4CF5FC530C1F7F9
:1052C00080E001C081E0CF9108950E94E5090C942F
:1052D00098051F920F920FB60F9211248F939F93F0
:1052E000AF93BF938091ED03811113C080910505A9
:1052F00090910605A0910705B09108054196A11D62
:10530000B11D8093050590930605A0930705B09302
:105310000805BF91AF919F918F910F900FBE0F9095
:105320001F90189582E084BD93E095BD9AEF97BDDC
:1053300080936E0008952FB7F894809105059091A1
:105340000605A0910705B09108052FBF08952FB756
:10535000F89460910505709106058091070590917C
:1053600008052FBF08959C014FB7F894809105055B
:1053700090910605A0910705B09108054FBF821BCB
:10538000930B0895CF92DF92EF92FF922FB7F8948C
:10539000C0900505D0900605E0900705F09008053F
:1053A0002FBFA7019601261B370B480B590BCA01CB
:1053B000B901FF90EF90DF90CF90089578941F92FD
:1053C0000F920FB60F9211248F939F93AF93BF93B9
:1053D0008091050590910605A0910705B0910805FB
:1053E0000196A11DB11D8093050590930605A0931C
:1053F0000705B0930805BF91AF919F918F910F90D2
:105400000FBE0F901F90189581E08093E00080E21E
:105410008093D8001092C9008FE19EE40197F1F7C4
:1054200000C0000087E090EBDC01809316059093AC
:105430001705A0931805B09319059CE088E10FB6F5
:10544000F894A895809360000FBE90936000FFCF02
:105450008091FC0308950895CF93DF9321E020937A
:10546000E9002FEF3091E800215035FD06C035ED01
:105470003A95F1F700002111F5CF2091E80025FFC2
:1054800014C0EC0140E050E068E070E00E94F62CAF
:105490008091E8008E778093E80088E0FE01A4EF19
:1054A000B3E001900D928A95E1F7DF91CF910895D5
:1054B0008093F0037093F2036093F10380910D05E4
:1054C000843001F582E08093E9008FEF9091E8004D
:1054D000815095FD06C095ED9A95F1F70000811178
:1054E000F5CF8091E80085FF0DC040E050E063E01B
:1054F00070E080EF93E00E94F62C8091E8008E77B8
:105500008093E8000895BC0184E00C94582ABC0103
:1055100083E00C94582A089589EF95E00E94F203E5
:1055200080910C05811109C00E94872E0E94E42EF3
:105530008091E20084608093E200089585EF95E019
:105540000E94F20310920C05089581EF95E00E94ED
:10555000F2030C941F298DEE95E00E94F2036091F6
:10556000090581E0611101C080E00C940A2989EEEF
:1055700095E00E94F20390910D0581E0943009F0CE
:1055800080E0609109050C940F292091EF032F5FB3
:10559000822F62E30E949331992319F02093EF0345
:1055A00008951092EF038091F303882371F18091A5
:1055B0000D05843041F58091E9008F702091EC0059
:1055C000922F917020FD90E8892B93E09093E90051
:1055D0009091EB0090FF14C09091EE0097FF10C0E7
:1055E0009091E80095FF03C01092F100F9CF9091DF
:1055F000E80090FF05C09091E8009E779093E80046
:105600008F708093E9001092F303089542E061ECFB
:1056100081E00E94002E42E261EC82E00E94002EB6
:1056200042E261EC83E00E94002E90910D0581E042
:10563000943009F080E0609109050C94182980915C
:105640000F05833009F461C030F4813071F082308D
:1056500009F49AC008958A3009F486C08B3009F4A1
:105660006CC0893009F0A8C020C080910E05813A35
:1056700009F0A2C08091E800877F8093E8008091C4
:10568000120590911305892B21F468E084EF93E0D3
:1056900003C060E080E090E070E00E94412D8091C6
:1056A000E8008B778093E800089580910E058132A1
:1056B00009F082C08091120590911305029708F0BD
:1056C0007BC08091E800877F8093E8008091E800AC
:1056D00082FD05C080910D058111F8CF6DC020912C
:1056E000F3008091F20090E0922B029731F48091C8
:1056F000F100813011F0863021F48091F100809327
:10570000FC038091E8008B7753C080910E05813AAD
:1057100009F052C08091120590911305892B09F070
:105720004BC08091E800877F8093E8008091E8007B
:1057300080FFFCCF80914E0236C080910E058132F1
:10574000D9F58091120590911305892BA9F58091C7
:10575000E800877F8093E8000E94352E8091100535
:1057600080934E020C94E50980910E05813221F55B
:105770008091E800877F8093E8000E94352E809119
:1057800011058093FD03089580910E05813AA1F4DF
:105790008091E800877F8093E8008091E80080FF97
:1057A000FCCF8091FD038093F1008091E8008E771B
:1057B0008093E8000C94352E08959FB7F8941092CA
:1057C000F3039FBF90910D05943009F057C090915D
:1057D000E9009F703091EC00232F217030FD20E80C
:1057E000922B23E02093E9002091EB0020FF43C09F
:1057F0002091EE0027FF3FC02091EE03222321F0ED
:105800002091E80025FF37C01092EE0326E030918A
:10581000E80035FD15C030910D05343061F530914B
:10582000EB0035FD28C0215021F481E08093EE0388
:1058300022C0EFE9FFE03197F1F700C00000E7CFA9
:105840008093F1008091E80085FD0AC08091E80016
:1058500080FFFCCF8091E8008E778093E80006C03F
:105860008FB7F89421E02093F3038FBF9F7090933C
:10587000E90080E008959F709093E9008FEF08950C
:1058800084B7877F84BF0FB6F894A8958091600095
:10589000886180936000109260000FBE90E080E805
:1058A0000FB6F89480936100909361000FBE0C9442
:1058B0001A290E94872E0E94E42EE2EEF0E08081F9
:1058C0008460808378940C94783182E492E00C9424
:1058D000342880910D058530C9F485EE95E00E944D
:1058E000F20380910D05853079F40E942229809180
:1058F0000B058823B1F30E945029882391F30E945D
:10590000E02C0E94E509EDCF0C94652908950895D7
:105910000C948A2C292F332723303105C9F060F4E9
:105920002130310581F02230310509F041C08BE58D
:1059300090E029E336E040C021323105E1F0223227
:10594000310531F135C082E190E024E936E034C020
:1059500099278130910549F028F0029749F5EDEF3C
:10596000F5E005C0E5E3F6E002C0E5E1F6E084918C
:1059700090E09F0121C063307105D0F4660F771F5E
:10598000FB01E651FD4F2081318189E090E014C098
:105990006330710568F4FB01EE0FFF1FEC51FD4F02
:1059A00020813181FB01EF51FD4F808190E004C0E7
:1059B00080E090E020E030E0FA0131832083089518
:1059C00080E189BD82E189BD09B400FEFDCF8091EF
:1059D000D8008F7D8093D8008091E0008260809312
:1059E000E0008091E00081FDFCCF0895CF92DF922E
:1059F000EF92FF920F931F93CF93DF93EC018B01F4
:105A00007A010E94542E811133C0E114F10439F05F
:105A1000F70180819181081B190BC80FD91FC12C78
:105A2000D12C0115110519F18091E80085FD16C0F2
:105A30008091E8008E778093E800E114F10449F04A
:105A4000F70180819181C80ED91ED182C08285E084
:105A50000FC00E94542E882321F30AC0899180939D
:105A6000F10001501109FFEFCF1ADF0ADACF80E011
:105A7000DF91CF911F910F91FF90EF90DF90CF902A
:105A8000089520911405309115052617370748F021
:105A90006115710539F42091E8002E772093E80014
:105AA00001C0B901FC0120E06115710579F1809117
:105AB0000D058823F1F18530F1F18091E80083FD37
:105AC0003CC08091E80082FD2EC08091E80080FFFC
:105AD000EBCF2091F3008091F20090E0922B6115C2
